:020000040800F2
:1000000000500020E92C0008252900082D290008AF
:10001000352900083D290008452900080000000096
:100020000000000000000000000000004D29000852
:1000300059290008000000006529000871290008FE
:10004000312D0008312D0008312D0008312D000818
:10005000312D0008312D0008312D0008312D000808
:10006000312D0008312D0008312D0008312D0008F8
:10007000312D0008312D0008312D0008312D0008E8
:10008000312D0008312D0008312D0008312D0008D8
:10009000312D0008312D0008312D0008312D0008C8
:1000A000312D0008312D0008312D0008312D0008B8
:1000B000312D0008312D0008312D0008312D0008A8
:1000C000312D0008312D0008312D0008312D000898
:1000D000312D0008312D0008312D00087D29000840
:1000E000312D0008312D0008312D000800000000DE
:1000F0000000000000000000000000000000000000
:0C01000000000000000000005FF808F1A3
:1001100010B5054C237833B9044B13B10448AFF341
:1001200000800123237010BDD801002000000000D2
:10013000409A000808B5034B1BB103490348AFF3CD
:10014000008008BD00000000DC010020409A00088B
:10015000034613F8012B002AFBD1181A0138704707
:1001600081F0004102E000BF83F0004330B54FEA68
:1001700041044FEA430594EA050F08BF90EA020FD5
:100180001FBF54EA000C55EA020C7FEA645C7FEA68
:10019000655C00F0E2804FEA5454D4EB5555B8BF8B
:1001A0006D420CDD2C4480EA020281EA030382EAFC
:1001B000000083EA010180EA020281EA0303362D8E
:1001C00088BF30BD11F0004F4FEA01314FF4801C61
:1001D0004CEA113102D0404261EB410113F0004F73
:1001E0004FEA03334CEA133302D0524263EB43032A
:1001F00094EA050F00F0A780A4F10104D5F1200EC8
:100200000DDB02FA0EFC22FA05F2801841F1000122
:1002100003FA0EF2801843FA05F359410EE0A5F1F6
:1002200020050EF1200E012A03FA0EFC28BF4CF027
:10023000020C43FA05F3C01851EBE37101F00045DD
:1002400007D54FF0000EDCF1000C7EEB00006EEBEA
:100250000101B1F5801F1BD3B1F5001F0CD3490874
:100260005FEA30004FEA3C0C04F101044FEA4452CB
:1002700012F5800F80F09A80BCF1004F08BF5FEA52
:10028000500C50F1000041EB045141EA050130BD32
:100290005FEA4C0C404141EB0101013C28BFB1F544
:1002A000801FE9D291F0000F04BF01460020B1FA8F
:1002B00081F308BF2033A3F10B03B3F120020CDA62
:1002C0000C3208DD02F1140CC2F10C0201FA0CF040
:1002D00021FA02F10CE002F11402D8BFC2F1200CA5
:1002E00001FA02F120FA0CFCDCBF41EA0C0190405B
:1002F000E41AA2BF01EB0451294330BD6FEA0404A4
:100300001F3C1CDA0C340EDC04F11404C4F120028E
:1003100020FA04F001FA02F340EA030021FA04F3A0
:1003200045EA030130BDC4F10C04C4F1200220FAF7
:1003300002F001FA04F340EA0300294630BD21FA35
:1003400004F0294630BD94F0000F83F4801306BFFB
:1003500081F480110134013D4EE77FEA645C18BFEF
:100360007FEA655C29D094EA050F08BF90EA020F86
:1003700005D054EA000C04BF1946104630BD91EA7E
:10038000030F1EBF0021002030BD5FEA545C05D181
:100390004000494128BF41F0004130BD14F58004C0
:1003A0003CBF01F5801130BD01F0004545F0FE4134
:1003B00041F470014FF0000030BD7FEA645C1ABF69
:1003C000194610467FEA655C1CBF0B46024650EAA0
:1003D000013406BF52EA033591EA030F41F40021CC
:1003E00030BD00BF90F0000F04BF0021704730B552
:1003F0004FF4806404F132044FF000054FF0000127
:1004000050E700BF90F0000F04BF0021704730B5E7
:100410004FF4806404F1320410F0004548BF4042BC
:100420004FF000013EE700BF42004FEAE2014FEA11
:1004300031014FEA02701FBF12F07F4393F07F4FEC
:1004400081F06051704732F07F4208BF704793F0EF
:100450007F4F04BF41F40021704730B54FF4607402
:1004600001F0004521F000411CE700BF50EA010205
:1004700008BF704730B54FF000050AE050EA0102AE
:1004800008BF704730B511F0004502D5404261EB1E
:1004900041014FF4806404F132045FEA915C3FF45F
:1004A000D8AE4FF003025FEADC0C18BF03325FEAFC
:1004B000DC0C18BF033202EBDC02C2F1200300FAAD
:1004C00003FC20FA02F001FA03FE40EA0E0021FAD2
:1004D00002F11444BDE600BF70B54FF0FF0C4CF4C0
:1004E000E06C1CEA11541DBF1CEA135594EA0C0F72
:1004F00095EA0C0F00F0DEF82C4481EA030621EAAD
:100500004C5123EA4C5350EA013518BF52EA0335E7
:1005100041F4801143F4801338D0A0FB02CE4FF099
:100520000005E1FB02E506F00042E0FB03E54FF0C9
:100530000006E1FB03569CF0000F18BF4EF0010EC1
:10054000A4F1FF04B6F5007F64F5407404D25FEABD
:100550004E0E6D4146EB060642EAC62141EA555170
:100560004FEAC52040EA5E504FEACE2EB4F1FD0CB2
:1005700088BFBCF5E06F1ED8BEF1004F08BF5FEA30
:10058000500E50F1000041EB045170BD06F00046E2
:1005900046EA010140EA020081EA0301B4EB5C048F
:1005A000C2BFD4EB0C0541EA045170BD41F4801187
:1005B0004FF0000E013C00F3AB8014F1360FDEBFAC
:1005C000002001F0004170BDC4F10004203C35DA88
:1005D0000C341BDC04F11404C4F1200500FA05F30B
:1005E00020FA04F001FA05F240EA020001F00042AC
:1005F00021F0004110EBD37021FA04F642EB060122
:100600005EEA430E08BF20EAD37070BDC4F10C044B
:10061000C4F1200500FA04F320FA05F001FA04F20F
:1006200040EA020001F0004110EBD37041F10001FB
:100630005EEA430E08BF20EAD37070BDC4F1200506
:1006400000FA05F24EEA020E20FA04F301FA05F26E
:1006500043EA020321FA04F001F0004121FA04F216
:1006600020EA020000EBD3705EEA430E08BF20EAE6
:10067000D37070BD94F0000F0FD101F00046400020
:1006800041EB010111F4801F08BF013CF7D041EAA2
:10069000060195F0000F18BF704703F000465200A6
:1006A00043EB030313F4801F08BF013DF7D043EA77
:1006B0000603704794EA0C0F0CEA135518BF95EA2D
:1006C0000C0F0CD050EA410618BF52EA4306D1D1B4
:1006D00081EA030101F000414FF0000070BD50EAD3
:1006E000410606BF1046194652EA430619D094EA5D
:1006F0000C0F02D150EA013613D195EA0C0F05D147
:1007000052EA03361CBF104619460AD181EA03019A
:1007100001F0004141F0FE4141F470014FF0000052
:1007200070BD41F0FE4141F4780170BD70B54FF0ED
:10073000FF0C4CF4E06C1CEA11541DBF1CEA13556D
:1007400094EA0C0F95EA0C0F00F0A7F8A4EB05044F
:1007500081EA030E52EA03354FEA013100F0888046
:100760004FEA03334FF0805545EA131343EA12630F
:100770004FEA022245EA111545EA10654FEA0026C4
:100780000EF000419D4208BF964244F1FD0404F57D
:10079000407402D25B084FEA3202B61A65EB0305D9
:1007A0005B084FEA32024FF480104FF4002CB6EB96
:1007B000020E75EB030E22BFB61A754640EA0C0016
:1007C0005B084FEA3202B6EB020E75EB030E22BF56
:1007D000B61A754640EA5C005B084FEA3202B6EB97
:1007E000020E75EB030E22BFB61A754640EA9C0056
:1007F0005B084FEA3202B6EB020E75EB030E22BF26
:10080000B61A754640EADC0055EA060E18D04FEAE3
:10081000051545EA16754FEA06164FEAC30343EA83
:1008200052734FEAC2025FEA1C1CC0D111F4801F50
:100830000BD141EA00014FF000004FF0004CB6E749
:1008400011F4801F04BF01430020B4F1FD0C88BFE8
:10085000BCF5E06F3FF6AFAEB5EB030C04BFB6EBF3
:10086000020C5FEA500C50F1000041EB045170BDE6
:100870000EF0004E4EEA113114EB5C04C2BFD4EB13
:100880000C0541EA045170BD41F480114FF0000E97
:10089000013C90E645EA060E8DE60CEA135594EA13
:1008A0000C0F08BF95EA0C0F3FF43BAF94EA0C0F16
:1008B0000AD150EA01347FF434AF95EA0C0F7FF48B
:1008C00025AF104619462CE795EA0C0F06D152EADF
:1008D00003353FF4FDAE1046194622E750EA4106C3
:1008E00018BF52EA43067FF4C5AE50EA41047FF4D4
:1008F0000DAF52EA43057FF4EBAE12E74FF0FF3C39
:1009000006E000BF4FF0010C02E000BF4FF0010C09
:100910004DF804CD4FEA410C7FEA6C5C4FEA430C82
:1009200018BF7FEA6C5C1BD001B050EA410C0CBFD1
:1009300052EA430C91EA030F02BF90EA020F002033
:10094000704710F1000F91EA030F58BF994208BF9A
:1009500090422CBFD8176FEAE37040F00100704757
:100960004FEA410C7FEA6C5C02D150EA013C07D1AE
:100970004FEA430C7FEA6C5CD6D152EA033CD3D0F9
:100980005DF8040B704700BF8446104662468C46F3
:100990001946634600E000BF01B5FFF7B7FF002826
:1009A00048BF10F1000F01BD4DF808EDFFF7F4FF4F
:1009B0000CBF012000205DF808FB00BF4DF808EDDA
:1009C000FFF7EAFF34BF012000205DF808FB00BFFD
:1009D0004DF808EDFFF7E0FF94BF012000205DF81F
:1009E00008FB00BF4DF808EDFFF7CEFF94BF0120D4
:1009F00000205DF808FB00BF4DF808EDFFF7C4FFCD
:100A000034BF012000205DF808FB00BF4FEA410C15
:100A10007FEA6C5C02D150EA013C0AD14FEA430CF8
:100A20007FEA6C5C02D152EA033C02D14FF0000035
:100A300070474FF0010070474FEA410212F5001273
:100A400015D211D56FF47873B3EB625212D94FEA15
:100A5000C12343F0004343EA505311F0004F23FAFF
:100A600002F018BF404270474FF00000704750EA54
:100A7000013005D111F0004008BF6FF00040704711
:100A80004FF00000704700BF4A0011D212F500126B
:100A900011D20DD56FF47873B3EB62520ED44FEAD6
:100AA000C12343F0004343EA505323FA02F0704756
:100AB0004FF00000704750EA013002D14FF0FF3094
:100AC00070474FF0000070474FEA4102B2F1E04337
:100AD00024BFB3F5001CDCF1FE5C0DD901F0004C25
:100AE0004FEAC0024CEA5070B2F1004F40EB830075
:100AF00008BF20F00100704711F0804F21D113F1A1
:100B00003872BCBF01F00040704741F480114FEAD9
:100B10005252C2F11802C2F1200C10FA0CF320FA62
:100B200002F018BF40F001004FEAC1234FEAD3237F
:100B300003FA0CFC40EA0C0023FA02F34FEA4303E9
:100B4000CCE77FEA625307D150EA01331EBF4FF072
:100B5000FE4040F44000704701F0004040F0FE408D
:100B600040F40000704700BF80F0004002E000BF8A
:100B700081F0004142001FBF5FEA410392EA030F88
:100B80007FEA226C7FEA236C6AD04FEA1262D2EBD2
:100B90001363C1BFD218414048404140B8BF5B42D7
:100BA000192B88BF704710F0004F40F4000020F070
:100BB0007F4018BF404211F0004F41F4000121F086
:100BC0007F4118BF494292EA030F3FD0A2F10102D0
:100BD00041FA03FC10EB0C00C3F1200301FA03F10E
:100BE00000F0004302D5494260EB4000B0F5000F31
:100BF00013D3B0F1807F06D340084FEA310102F1F0
:100C00000102FE2A51D2B1F1004F40EBC25008BFA1
:100C100020F0010040EA03007047490040EB00006B
:100C2000013A28BFB0F5000FEDD2B0FA80FCACF16C
:100C3000080CB2EB0C0200FA0CF0AABF00EBC25099
:100C400052421843BCBFD0401843704792F0000F87
:100C500081F4000106BF80F400000132013BB5E7DA
:100C60004FEA41037FEA226C18BF7FEA236C21D050
:100C700092EA030F04D092F0000F08BF08467047B5
:100C800090EA010F1CBF0020704712F07F4F04D183
:100C9000400028BF40F00040704712F100723CBF96
:100CA00000F50000704700F0004343F0FE4040F4C0
:100CB000000070477FEA226216BF08467FEA23637E
:100CC0000146420206BF5FEA412390EA010F40F469
:100CD000800070474FF0000304E000BF10F00043B5
:100CE00048BF40425FEA000C08BF704743F096439C
:100CF00001464FF000001CE050EA010208BF7047B7
:100D00004FF000030AE000BF50EA010208BF70473D
:100D100011F0004302D5404261EB41015FEA010C52
:100D200002BF84460146002043F0B64308BFA3F14A
:100D30008053A3F50003BCFA8CF2083AA3EBC2532C
:100D400010DB01FA02FC634400FA02FCC2F120024B
:100D5000BCF1004F20FA02F243EB020008BF20F082
:100D60000100704702F1200201FA02FCC2F12002E8
:100D700050EA4C0021FA02F243EB020008BF20EADD
:100D8000DC7070474FF0FF0C1CEAD0521EBF1CEA0B
:100D9000D15392EA0C0F93EA0C0F6FD01A4480EAF9
:100DA000010C400218BF5FEA41211ED04FF00063E2
:100DB00043EA501043EA5111A0FB01310CF000400E
:100DC000B1F5000F3EBF490041EAD3715B0040EA34
:100DD000010062F17F02FD2A1DD8B3F1004F40EB04
:100DE000C25008BF20F00100704790F0000F0CF0D7
:100DF000004C08BF49024CEA502040EA51207F3A9B
:100E0000C2BFD2F1FF0340EAC250704740F4000075
:100E10004FF00003013A5DDC12F1190FDCBF00F066
:100E200000407047C2F10002410021FA02F1C2F114
:100E3000200200FA02FC5FEA310040F1000053EAB0
:100E40004C0308BF20EADC70704792F0000F00F0FE
:100E5000004C02BF400010F4000F013AF9D040EA04
:100E60000C0093F0000F01F0004C02BF490011F498
:100E7000000F013BF9D041EA0C018FE70CEAD15396
:100E800092EA0C0F18BF93EA0C0F0AD030F0004C16
:100E900018BF31F0004CD8D180EA010000F00040CA
:100EA000704790F0000F17BF90F0004F084691F088
:100EB000000F91F0004F14D092EA0C0F01D14202C2
:100EC0000FD193EA0C0F03D14B0218BF084608D18B
:100ED00080EA010000F0004040F0FE4040F40000D5
:100EE000704740F0FE4040F4400070474FF0FF0C68
:100EF0001CEAD0521EBF1CEAD15392EA0C0F93EAAF
:100F00000C0F69D0A2EB030280EA010C49024FEA00
:100F1000402037D04FF0805343EA111143EA1013B9
:100F20000CF000408B4238BF5B0042F17D024FF471
:100F3000000C8B4224BF5B1A40EA0C00B3EB510F4C
:100F400024BFA3EB510340EA5C00B3EB910F24BF35
:100F5000A3EB910340EA9C00B3EBD10F24BFA3EBBA
:100F6000D10340EADC001B0118BF5FEA1C1CE0D182
:100F7000FD2A3FF650AF8B4240EBC25008BF20F035
:100F8000010070470CF0004C4CEA50207F32C2BF89
:100F9000D2F1FF0340EAC250704740F400004FF026
:100FA0000003013A37E792F0000F00F0004C02BF57
:100FB000400010F4000F013AF9D040EA0C0093F021
:100FC000000F01F0004C02BF490011F4000F013B7B
:100FD000F9D041EA0C0195E70CEAD15392EA0C0FE3
:100FE00008D142027FF47DAF93EA0C0F7FF470AF1B
:100FF000084676E793EA0C0F04D14B023FF44CAF5E
:1010000008466EE730F0004C18BF31F0004CCAD1F2
:1010100030F000427FF45CAF31F000437FF43CAF2E
:101020005FE700BF4FF0FF3C06E000BF4FF0010C50
:1010300002E000BF4FF0010C4DF804CD4FEA400232
:101040004FEA41037FEA226C18BF7FEA236C11D07C
:1010500001B052EA530C18BF90EA010F58BFB2EB2F
:10106000030088BFC81738BF6FEAE17018BF40F0AF
:10107000010070477FEA226C02D15FEA402C05D163
:101080007FEA236CE4D15FEA412CE1D05DF8040BE8
:10109000704700BF844608466146FFE70FB5FFF77B
:1010A000C9FF002848BF10F1000F0FBD4DF808ED33
:1010B000FFF7F4FF0CBF012000205DF808FB00BF24
:1010C0004DF808EDFFF7EAFF34BF012000205DF87E
:1010D00008FB00BF4DF808EDFFF7E0FF94BF0120CB
:1010E00000205DF808FB00BF4DF808EDFFF7D2FFC8
:1010F00094BF012000205DF808FB00BF4DF808ED0B
:10110000FFF7C8FF34BF012000205DF808FB00BFD7
:1011100038B50022002304460D46FFF74FFC28B9DE
:1011200020462946BDE8384000F00AB8204605F1BF
:10113000004100F005F8404261EB410138BD00BFBD
:10114000D0B500220B4B06460F46FFF7C5F9FFF757
:101150009BFC0446FFF746F90022074BFFF7BCF95A
:1011600002460B4630463946FEF7FEFFFFF78CFC81
:101170002146D0BD0000F03D0000F04180B588B0B0
:1011800000AF07F1100300221A605A609A60DA601B
:10119000244B9B69234A43F020039361214B9B69B5
:1011A00003F02003FB60FB681E4B9B691D4A43F064
:1011B000040393611B4B9B6903F00403BB60BB6892
:1011C000184B9B69174A43F008039361154B9B69C1
:1011D00003F008037B607B6800221221124802F0B2
:1011E0008AF902233B6101237B610123BB61022356
:1011F000FB6107F1100319460B4801F0E1FF1023D2
:101200003B6101237B610023BB610223FB6107F18A
:1012100010031946044801F0D3FF00BF2037BD4634
:1012200080BD00BF001002400008014080B500AF43
:10123000124B134A1A60114B124A5A600F4B00228C
:101240009A600E4B0022DA600C4B4FF480421A6118
:101250000A4B00225A61094B00229A61074B002277
:10126000DA61064B00221A62044802F05DF9034677
:10127000002B01D000F0EDFF00BF80BDF401002085
:1012800000540040801A060080B588B000AF786036
:1012900007F1100300221A605A609A60DA607B68D6
:1012A0001B68154A934223D1144B9B69134A43F0A0
:1012B00008039361114B9B6903F00803FB60FB6813
:1012C000C0233B6112237B610323FB6107F1100301
:1012D00019460B4801F074FF084BDB69074A43F4D9
:1012E0000013D361054BDB6903F40013BB60BB68DB
:1012F00000BF2037BD4680BD0054004000100240B2
:10130000000C014080B500AF00221021024802F01D
:10131000F2F800BF80BD00BF0008014080B582B078
:1013200000AF0346FB71FB79002B14BF01230023A0
:10133000DBB21A461021034802F0DDF800BF08377F
:10134000BD4680BD0008014080B483B000AF0346B5
:10135000FB80FB881A46520013445B00FB8007E0C9
:1013600000BF00BF00BF00BF00BF00BF00BF00BF85
:10137000FB885A1EFA80002BF2D100BF00BF0C3749
:10138000BD4680BC7047000080B582B000AF034608
:10139000FB71002202210E4802F0ADF80120FFF798
:1013A000D3FFFB79002B04D001220221084802F070
:1013B000A2F83C20FFF7C8FF01220221044802F0F6
:1013C0009AF80120FFF7C0FF00BF0837BD4680BD77
:1013D0000008014080B582B000AF0023FB710022FD
:1013E00002210F4802F087F80120FFF7ADFF01222C
:1013F00002210B4802F07FF80A20FFF7A5FF022127
:10140000074802F061F80346002B01D00123FB716D
:101410003220FFF799FFFB7918460837BD4680BD9B
:101420000008014080B584B000AF0346FB71002383
:10143000FB730CE0FB7903F00103DBB21846FFF706
:10144000A3FFFB795B08FB71FB7B0133FB73FB7B29
:10145000072BEFD900BF00BF1037BD4680BD80B558
:1014600082B000AF0023FB710023BB710EE0FB795B
:101470005B08FB71FFF7AEFF0346002B03D0FB793F
:1014800063F07F03FB71BB790133BB71BB79072B21
:10149000EDD9FB7918460837BD4680BD80B586B0CA
:1014A00000AF3B1D00221A605A609A60DA60022386
:1014B0007B600123BB600023FB6003233B613B1D7A
:1014C00019461E4801F07CFE002202211B4802F052
:1014D00012F84FF4F070FFF737FF0122022117488E
:1014E00002F009F80023BB600023FB603B1D194696
:1014F000124801F065FE3C20FFF726FF02210F484D
:1015000001F0E2FF0346FB754FF4D270FFF71CFFBA
:101510000123BB600023FB6003233B613B1D194695
:10152000064801F04DFE01220221044801F0E3FFCC
:10153000FB7D18461837BD4680BD00BF000801403E
:1015400080B485B000AF78600B46FB700023FB735E
:1015500022E07B685A1C7A601B78BB7308237B737C
:1015600017E0FA7BBB7B5340DBB203F001033B7314
:10157000FB7B5B08FB733B7B002B04D0FB7B83F086
:101580007303DB43FB73BB7B5B08BB737B7B013B60
:101590007B737B7B002BE4D1FB785A1EFA70002B07
:1015A000D7D1FB7B18461437BD4680BC704700007E
:1015B00080B584B000AF78600123FB730023BB7358
:1015C00000237B730123FB7200233B73614B1B7869
:1015D000002B0AD0604B00221A705E4B00221A705A
:1015E0005E4B00221A700023AFE0FFF757FF03465F
:1015F000002B0AD0584B00221A70584B00221A7048
:10160000544B00221A7000239FE0F020FFF70AFFDE
:10161000FFF7E0FE03467B72FFF7DCFE03463B72FA
:101620007B7A012B02D13B7A012B61D07A7A3B7A0B
:101630009A4202D07B7ABB7226E0474B1B78FA7B3A
:101640009A420DD27B7B7A6813441A78FB7A134056
:10165000DBB2002B14BF01230023DBB2BB7208E016
:101660003D4B1B78FA7B9A420CBF01230023DBB26F
:10167000BB72BB7A002B07D1FB7BBB73BB7B082BF8
:1016800002D8364ABB7B1370BB7A012B0BD17B7B14
:101690007A68134419787B7B7A681344FA7A0A4390
:1016A000D2B21A700FE07B7B7A6813441B785AB26F
:1016B00097F90B30DB435BB2134059B27B7B7A68FE
:1016C0001344CAB21A70BB7A1846FFF75DFEFB7B63
:1016D0000133FB73FB7A5B00FB72FB7A002B04D1B6
:1016E0007B7B01337B730123FB727B7B072B8FD9C1
:1016F000FB7B402B0BD9184ABB7B1370164B1B7816
:10170000002B02D1134B01221A7001233B733B7B48
:10171000002B0ED07B681B78002B0AD0072178683D
:10172000FFF70EFF03461A467B6807331B789A4281
:101730000AD0094B00221A70064B00221A70074B80
:1017400000221A7000233B733B7B18461037BD46BE
:1017500080BD00BF730200207102002072020020D1
:10176000F0B5A7B008AF574B00221A70564B0022B5
:101770001A70564B00221A70554B00221A7020E046
:1017800097F86C30282B1CD107F16C030721184601
:10179000FFF7D6FE03461A4697F873309A4210D1E7
:1017A000484B1B78DB004B4A13441A4607F16C0385
:1017B00003CB10605160434B1B780133DAB2414BCD
:1017C0001A7007F16C031846FFF7F2FE0346002B70
:1017D00003D03C4B1B78042BD2D93A4B1B781A46CA
:1017E00007F108033C49184604F064FD07F10803BB
:1017F0001846FEF7ADFC03469AB207F108016423D0
:10180000364802F08DFF00237B6750E0314A7B6F42
:10181000DB001344DB799C462E4A7B6FDB001344CC
:101820009B7919462B4A7B6FDB0013445B791C467E
:10183000284A7B6FDB0013441B791D46254A7B6FCA
:10184000DB001344DB781E46224A7B6FDB00134427
:101850009B787B601F4A7B6FDB0013445B783B60A7
:101860001C4A7B6F12F8333007F1080006933A6880
:1018700005927B6804930396029501940091634658
:101880007A6F174904F016FD07F108031846FEF7B2
:101890005FFC03469AB207F10801C8230F4802F023
:1018A0003FFF0A2001F0A8FA7B6F01337B67054BED
:1018B0001B781A467B6F9342A8DB00BF00BF7C37C2
:1018C000BD46F0BD700200207102002073020020AE
:1018D0007202002048020020589A000810070020D9
:1018E000749A000880B584B000AF78605520FFF787
:1018F00099FD0023FB7309E0FB7B7A6813441B7896
:101900001846FFF78FFDFB7B0133FB73FB7B072B37
:10191000F2D900BF00BF1037BD4680BD80B500AF13
:10192000CC20FFF77FFD00BF80BD000080B584B0F4
:1019300000AF7860234BFB60FFF7B0FD0346002B40
:1019400001D0FB6839E07868FFF7CCFFBE20FFF7D5
:1019500069FDFFF784FD0346FB72FFF780FD034638
:10196000BB72BB7A1BB21B021AB2FB7A1BB21343C7
:101970001BB23B81B7F90830002B11DA3B895B427F
:101980003B813B891846FFF7A5F9034683F00043E6
:101990004FF083411846FFF7A9FA0346FB600BE0BE
:1019A0003B891846FFF796F903464FF083411846E6
:1019B000FFF79CFA0346FB60FB6818461037BD46EC
:1019C00080BD00BF00C079C480B500AFFFF766FDE1
:1019D0000346002B01D0012305E0FFF79FFF4420C1
:1019E000FFF720FD0023184680BD000080B582B0BF
:1019F00000AF78607B681B681F4A934237D11F4B4A
:101A00001B780A2B03D01D4B1B780D2B0CD11C4BC4
:101A10001B781A461B4B002199541B4B01221A704C
:101A2000174B00221A701DE0154B1B782F2B0CD979
:101A3000134B1B781A46134B00219954124B012269
:101A40001A700F4B00221A700CE00D4B1B781A46CF
:101A50000A4B19780B4B9954094B1B780133DAB2B6
:101A6000074B1A7001220549084802F0E4FE00BF46
:101A70000837BD4680BD00BF00480040B4020020CA
:101A8000B202002080020020B302002010070020D4
:101A900080B5A0B002AF964B1B78002B00F02381DD
:101AA000944B3B673B1D9449184604F003FC3B1DD7
:101AB0001846FEF74DFB03469AB2391DC8238F48DE
:101AC00002F02EFE00237B6717E08A4A7B6F1344E7
:101AD0001B781A463B1D8A49184604F0EBFB3B1D58
:101AE0001846FEF735FB03469AB2391DC8238348D2
:101AF00002F016FE7B6F01337B67824B1B781A4620
:101B00007B6F9342E1DB386FFEF722FB03467D4A91
:101B10001278381D00923A6F7B4904F0CBFB3B1DD5
:101B20001846FEF715FB03469AB2391DC8237348C1
:101B300002F0F6FD02227549386F04F037FC0346C7
:101B4000002B52D13B6F0233184603F003FC0346CF
:101B5000BB663B1DBA6E6E49184604F0ABFB3B1DDD
:101B60001846FEF7F5FA03469AB2391DC8236348B2
:101B700002F0D6FDBB6E002B25D0BB6E42F20F7279
:101B8000934220D8634ABB6E1360634B01221A70E4
:101B9000624B01221A70624B00221A700120FFF77B
:101BA000BDFB3B1DBA6E5F49184604F083FB3B1D2D
:101BB0001846FEF7CDFA03469AB2391DC8234F489E
:101BC00002F0AEFD8BE0381DBB6E3A6F564904F053
:101BD00071FB3B1D1846FEF7BBFA03469AB2391D4E
:101BE000C823464802F09CFD79E003224F49386F34
:101BF00004F0DCFB0346002B41D13B6F0333184656
:101C000003F0A8FB0346FB66FB6E002B25D0FB6EA2
:101C100042F20F72934220D83E4AFB6E13603E4B55
:101C200001221A703D4B00221A703D4B00221A709F
:101C30000020FFF773FB3B1DFA6E3D49184604F088
:101C400039FB3B1D1846FEF783FA03469AB2391D4D
:101C5000C8232A4802F064FD41E03B1D3A6F354934
:101C6000184604F027FB3B1D1846FEF771FA0346A1
:101C70009AB2391DC823214802F052FD2FE00422F8
:101C80002D49386F04F092FB0346002B16D1224BEE
:101C900000221A70224B01221A703B1D2749184658
:101CA00004F008FB3B1D1846FEF752FA03469AB2B1
:101CB000391DC823114802F033FD10E03B1D3A6F77
:101CC0001F49184604F0F6FA3B1D1846FEF740FA85
:101CD00003469AB2391DC823084802F021FD044B7F
:101CE00000221A7000E000BF7837BD4680BD00BFFB
:101CF000B302002080020020A89A000810070020EC
:101D0000C09A0008B2020020C89A0008EC9A0008A5
:101D1000F09A0008B8020020BC020020BD0200209A
:101D200000000020089B0008249B00084C9B000832
:101D3000509B00086C9B0008849B00088C9B00084B
:101D4000B09B000880B58EB000AF154B1B78002B00
:101D500022D0144B1B68002B1ED0124B1B68013B7A
:101D6000104A13600F4B1B68002B15D10C4B00223F
:101D70001A700D4B01221A703B1D0C49184604F0D5
:101D800099FA3B1D1846FEF7E3F903469AB2391D4E
:101D9000C823074802F0C4FC00BF3837BD4680BDE9
:101DA000BC020020B802002000000020C89B0008F0
:101DB00010070020F0B5DFB006AF00F0BBFF00F069
:101DC00003FAFFF7DBF900F0ABFE00F0D3FEFFF7FC
:101DD0002DFAFFF797FA00F03DFC642001F00CF8B3
:101DE0000122AF49AF4802F026FD0823AE4A002188
:101DF000002000F0F9FB0823AC4A1021002000F07D
:101E0000F3FB00F049FA4FF47A7000F0F5FF642319
:101E10001B22A749A74802F083FCFFF7A1FCA64BB1
:101E20001B78184600F002FD4FF4FA6000F0E4FF62
:101E3000A14B1B78002B07D164231B229F499D488F
:101E400002F06EFC00BFFDE7FFF722FE00F0CAFFC4
:101E500002469B4B1B68D31AB3F57A7F06D3FFF774
:101E600071FF00F0BFFF0346954A1360FFF7ACFD1A
:101E70000346002B40F0838140F2EE2000F0BCFFCF
:101E8000002387F85F3196E097F85F31DB008D4AD9
:101E900013441846FFF74AFDC7F8580197F85F3119
:101EA0008949D7F8582141F8232097F85F31854AAE
:101EB000DB001344DB799C4697F85F31814ADB00F5
:101EC00013449B799E4697F85F317E4ADB001344AA
:101ED0005B79194697F85F317A4ADB0013441B7926
:101EE0001C4697F85F31774ADB001344DB781D46C8
:101EF00097F85F31734ADB0013449B781E4697F8CE
:101F00005F31704ADB0013445B787B6097F85F3188
:101F10006C4A12F8333007F1400005937B68049354
:101F2000039602950194009173466246674904F056
:101F3000C1F96749D7F85801FFF7E0F80346002BCD
:101F40001ED097F85F41D7F85801FEF76DFA0246A8
:101F50000B4607F1400107F1F400CDE900230B46E1
:101F600022465C4904F0A6F9D7F85801FEF75CFA5E
:101F700002460B4607F19000574904F09BF912E026
:101F800097F85F41D7F85801FEF74EFA02460B4624
:101F900007F1400107F1F400CDE900230B4622468A
:101FA0004E4904F087F9322000F026FF97F85F31A0
:101FB000013387F85F31404B1B7897F85F219A42D5
:101FC000FFF462AF002387F85E31454B1B78002B8E
:101FD00035D0002387F85D311DE097F85D313A4A2E
:101FE00052F823303F491846FFF788F80346002B84
:101FF0000CD00120FFF792F907F15C033A4918462B
:1020000004F058F9012387F85E310AE097F85D3152
:10201000013387F85D31284B1B7897F85D219A4290
:10202000DBD397F85E31002B1AD10020FFF776F949
:1020300007F15C032D49184604F03CF910E02C4BE5
:102040001B7887F85E3197F85E31002B01D0264A65
:1020500000E0264A07F15C031146184604F02AF90D
:10206000194B1868144B1B78012B02D9164B596871
:1020700000E02049104B1B78022B02D9124B9A68C2
:1020800000E01C4A97F85E31164C009400F00CFBFF
:10209000002387F89030002387F85C3148E000BFC8
:1020A000B402002010070020F09B0008049C0008E8
:1020B000189C0008C806002070020020349C00080C
:1020C000C00200204802002074020020509C00083A
:1020D000000061C4789C0008949C00089C9C000847
:1020E000000000200000F041C89C0008CC9C0008C3
:1020F000BD02002000C079C497F85C312C4A52F828
:1021000023301846FEF790F902460B4607F10C0003
:10211000284904F0CFF807F10C0207F190031146AB
:10212000184604F034F997F85C31013387F85C31D4
:1021300097F85C31022BDFD907F15C0207F19003BD
:102140001146184604F023F907F190031846FDF7ED
:10215000FFFF03461A4607F190031344164A10681E
:10216000186007F190031846FDF7F2FF03469AB294
:1021700007F19001C823114802F0D2FA12E007F1EA
:10218000F4030F49184604F095F807F1F4031846D4
:10219000FDF7DEFF03469AB207F1F4016423094814
:1021A00002F0BEFA41F2707000F026FE4CE600BF6D
:1021B00074020020949C0008D09C000810070020A6
:1021C000D49C0008C806002080B590B000AF07F18D
:1021D000180328220021184604F0D1F83B1D0022E4
:1021E0001A605A609A60DA601A610123BB614FF489
:1021F0008033FB6100233B620123BB6202237B63CC
:102200004FF48033BB634FF4E013FB6307F1180313
:10221000184601F025FE0346002B01D000F019F806
:102220000F237B600223BB600023FB604FF48063BD
:102230003B6100237B613B1D0221184602F092F8AE
:102240000346002B01D000F004F800BF4037BD4624
:1022500080BD80B400AF72B600BF00BFFDE70000D4
:1022600080B586B002AF03460A46FB711346BB71C8
:10227000BB793B73FB797B7307F10C0264230093FA
:1022800002237821034801F093FA00BF1037BD46BE
:1022900080BD00BFF401002080B5A4B002AF0023D0
:1022A00087F887303BE097F88730503BDBB200215E
:1022B0001846FFF7D5FF00210020FFF7D1FF0021CE
:1022C0001020FFF7CDFF40233B71002387F88630B5
:1022D00014E097F8861097F8872097F88630013336
:1022E0001348C90001440A44127888333B4403F878
:1022F000842C97F88630013387F8863097F986303A
:10230000002BE6DA3A1DC82300938123782109487F
:1023100001F04EFA97F88730013387F8873097F845
:102320008730072BBFD900BF00BF8837BD4680BDAF
:10233000C4020020F401002080B582B000AF002369
:10234000FB7114E00023BB710AE0BA79FB790C49F8
:10235000D2000A44134400221A70BB790133BB71C6
:1023600097F90630002BF0DAFB790133FB71FB792A
:10237000072BE7D9FFF790FF00BF0837BD4680BDA8
:10238000C402002080B485B000AF0346FB710B4649
:10239000BB7113467B710023FB7397F90730002B49
:1023A0003CDBBB793F2B39D8BB79DB08BB73BB79EE
:1023B00003F007037B737B7B012202FA03F3FB73B9
:1023C0007B79002B12D0FA79BB7B1749D2000A44E3
:1023D00013441878FA79BB7BF97B0143C8B21249E0
:1023E000D2000A44134402461A7018E0FA79BB7B03
:1023F0000D49D2000A4413441B785AB297F90F30A2
:10240000DB435BB2134059B2FA79BB7BC8B20649D1
:10241000D2000A44134402461A7000E000BF143789
:10242000BD4680BC704700BFC402002090B585B097
:1024300000AF0446084611461A462346FB71034680
:10244000BB710B467B7113463B717B79203B7B73E1
:1024500097F90730002B04DA0023FB71BB790233B4
:10246000BB713B79102B77D10023FB7332E0002343
:10247000BB7329E07B7B1A01FB7B1344584AD35C76
:102480001946BB7B802242FA03F30B40002B0CD091
:10249000FA79BB7B1344D8B2BA79FB7B1344DBB225
:1024A00001221946FFF76EFF0BE0FA79BB7B13445C
:1024B000D8B2BA79FB7B1344DBB200221946FFF78E
:1024C00061FFBB7B0133BB73BB7B072BD2D9FB7B8B
:1024D0000133FB73FB7B072BC9D90023FB7337E068
:1024E0000023BB732EE07B7B1A01FB7B1344083374
:1024F0003B4AD35C1946BB7B802242FA03F30B4074
:10250000002B0ED0FA79BB7B1344D8B2BA79FB7B8F
:102510001344DBB20833DBB201221946FFF732FF66
:102520000DE0FA79BB7B1344D8B2BA79FB7B134434
:10253000DBB20833DBB200221946FFF723FFBB7B77
:102540000133BB73BB7B072BCDD9FB7B0133FB7303
:10255000FB7B072BC4D93FE03B79082B3CD1002300
:10256000FB7336E00023BB732DE07A7BF97B1D48BB
:1025700013465B0013445B0003440B441B781A466C
:10258000BB7B42FA03F303F00103002B0CD0FA7972
:10259000FB7B1344D8B2BA79BB7B1344DBB2012274
:1025A0001946FFF7EFFE0BE0FA79FB7B1344D8B234
:1025B000BA79BB7B1344DBB200221946FFF7E2FE77
:1025C000BB7B0133BB73BB7B072BCED9FB7B0133BA
:1025D000FB73FB7B052BC5D900BF1437BD4690BDEF
:1025E00000A00008D89D000880B582B000AF3A6016
:1025F0001A460346FB710B46BB7113467B7120E004
:102600003B681A787B79B979F879FFF70FFF7B7906
:10261000082B01D1062200E00822FB791344FB714C
:10262000FB797A2B0AD90023FB717B79082B01D126
:10263000092200E01022BB791344BB713B680133CF
:102640003B603B681B78002BDAD100BF00BF083726
:10265000BD4680BDB0B588B000AF124B3C461D46AC
:102660000FCD0FC495E8070084E80700642000F050
:10267000C3FB0023FB770BE0FB7F20333B4413F8C5
:10268000203C00211846FFF7EBFDFB7F0133FB7771
:10269000FB7F1B2BF0D9FFF74FFE00BF2037BD4655
:1026A000B0BD00BFF49C000880B58AB000AFF860F0
:1026B000B9607A60FB70FFF73FFE0823504A0021A3
:1026C0000020FFF791FF08234E4A10210020FFF75A
:1026D0008BFF4D49F868FEF711FD0346002B11D022
:1026E000F868FDF7A1FE02460B4607F114004749C2
:1026F00003F0E0FD07F11402082310213820FFF752
:1027000073FF05E00823424A10213820FFF76CFFD1
:102710000823404A1A210020FFF766FF3A49B868AB
:10272000FEF7ECFC0346002B11D0B868FDF77CFEE9
:1027300002460B4607F11400344903F0BBFD07F1D4
:10274000140208231A213820FFF74EFF05E0082362
:102750002F4A1A213820FFF747FF08232E4A242149
:102760000020FFF741FF28497868FEF7C7FC0346C1
:10277000002B11D07868FDF757FE02460B4607F193
:102780001400224903F096FD07F1140208232421C6
:102790003820FFF729FF05E008231D4A24213820AF
:1027A000FFF722FF08231D4A32210020FFF71CFFFC
:1027B000FB78002B06D00823194A32213820FFF776
:1027C00013FF05E00823174A32213820FFF70CFFDA
:1027D000386BFDF729FE02460B4607F1140012493B
:1027E00003F068FD07F11402082332215A20FFF795
:1027F000FBFEFFF751FD00BF2837BD4680BD00BF7F
:10280000109D0008249D0008000061C4309D000850
:10281000389D0008409D00084C9D0008589D000808
:10282000609D0008649D0008689D000880B588B020
:1028300000AF0346FB71FFF77FFD08231A4A002112
:102840000020FFF7D1FEFA7907F10C03174918466B
:1028500003F030FD07F10C02082310210020FFF7E0
:10286000C3FEFB79002B0CD10823114A1E21002046
:10287000FFF7BAFE08230F4A28210020FFF7B4FE15
:102880000BE008230C4A1E210020FFF7ADFE0823B1
:102890000A4A28210020FFF7A7FEFFF7FDFC00BF32
:1028A0002037BD4680BD00BF6C9D00087C9D0008A0
:1028B000909D0008A49D0008B89D0008C89D0008D0
:1028C00080B485B000AF154B9B69144A43F00103F7
:1028D0009361124B9B6903F00103BB60BB680F4B14
:1028E000DB690E4A43F08053D3610C4BDB6903F084
:1028F00080537B607B680A4B5B68FB60FB6823F05E
:10290000E063FB60FB6843F08063FB60044AFB68A4
:10291000536000BF1437BD4680BC704700100240B2
:102920000000014080B400AF00BFFDE780B400AFFD
:1029300000BFFDE780B400AF00BFFDE780B400AF8B
:1029400000BFFDE780B400AF00BFFDE780B400AF7B
:1029500000BFBD4680BC704780B400AF00BFBD461D
:1029600080BC704780B400AF00BFBD4680BC7047DC
:1029700080B500AF00F024FA00BF80BD80B500AF85
:10298000024801F07DFF00BF80BD00BF100700209E
:1029900080B400AF01231846BD4680BC704780B5A7
:1029A00082B000AF7860396003F05CFD0346162208
:1029B0001A604FF0FF3318460837BD4680BD80B51A
:1029C00082B000AF78604FF0FF317868FFF7E7FF23
:1029D00000BFFDE780B586B000AFF860B9607A60EF
:1029E00000237B610AE0AFF300800146BB685A1CFC
:1029F000BA60CAB21A707B6901337B617A697B68FD
:102A00009A42F0DB7B6818461837BD4680BD80B51A
:102A100086B000AFF860B9607A6000237B6109E09E
:102A2000BB685A1CBA601B781846AFF300807B69FC
:102A300001337B617A697B689A42F1DB7B681846D7
:102A40001837BD4680BD80B483B000AF78604FF0CA
:102A5000FF3318460C37BD4680BC704780B483B046
:102A600000AF786039603B684FF400525A60002331
:102A700018460C37BD4680BC704780B483B000AFA9
:102A80007860012318460C37BD4680BC704780B47F
:102A900085B000AFF860B9607A600023184614373B
:102AA000BD4680BC7047000080B586B000AF78603E
:102AB000144A154BD31A7B617B693B61134B1B682E
:102AC000002B02D1114B124A1A60104B1A687B6816
:102AD00013443A699A4207D203F0C4FC03460C221D
:102AE0001A604FF0FF3309E0084B1B68FB60074B8F
:102AF0001A687B681344054A1360FB681846183748
:102B0000BD4680BD0050002000040000C406002027
:102B1000A808002080B400AF00BFBD4680BC70474D
:102B200080B500AF114B124A1A60104B4FF4E132DE
:102B30005A600E4B00229A600C4B0022DA600B4B5D
:102B400000221A61094B0C225A61084B00229A613B
:102B5000064B0022DA61054801F092FD0346002B86
:102B600001D0FFF776FB00BF80BD00BFC806002084
:102B70000038014080B500AF114B124A1A60104B6B
:102B80004FF4E1325A600E4B00229A600C4B002247
:102B9000DA600B4B00221A61094B0C225A61084B78
:102BA00000229A61064B0022DA61054801F068FDB7
:102BB0000346002B01D0FFF74CFB00BF80BD00BFD8
:102BC000100700200048004080B58AB000AF786050
:102BD00007F1180300221A605A609A60DA607B6875
:102BE0001B683C4A934232D13B4B9B693A4A43F4BF
:102BF00080439361384B9B6903F480437B617B691D
:102C0000354B9B69344A43F004039361324B9B6913
:102C100003F004033B613B694FF40073BB61022383
:102C2000FB6103237B6207F1180319462B4800F070
:102C3000C7FA4FF48063BB610023FB6100233B6252
:102C400007F118031946254800F0BAFA3EE07B6800
:102C50001B68234A934239D11F4BDB691E4A43F458
:102C60008023D3611C4BDB6903F48023FB60FB688A
:102C7000194B9B69184A43F008039361164B9B69F3
:102C800003F00803BB60BB684FF48063BB610223A1
:102C9000FB6103237B6207F118031946114800F01A
:102CA0008FFA4FF40063BB610023FB6100233B629A
:102CB00007F1180319460B4800F082FA00220021A0
:102CC000272000F094F9272000F0ADF900BF283745
:102CD000BD4680BD003801400010024000080140A0
:102CE00000480040000C0140FFF714FF0B480C495E
:102CF0000C4A002302E0D458C4500433C4188C4258
:102D0000F9D3094A094C002301E013600432A242BE
:102D1000FBD303F0ADFBFFF74DF870470000002038
:102D2000D801002050AA0008D8010020A8080020DF
:102D3000FEE7000080B500AF084B1B68074A43F070
:102D400010031360032000F047F90F2000F008F88B
:102D5000FFF7B6FD0023184680BD00BF00200240EB
:102D600080B582B000AF7860124B1A68124B1B78A6
:102D700019464FF47A73B3FBF1F3B2FBF3F3184641
:102D800000F05FF90346002B01D001230EE07B68C1
:102D90000F2B0AD8002279684FF0FF3000F027F996
:102DA000064A7B681360002300E0012318460837B9
:102DB000BD4680BD040000200C000020080000205B
:102DC00080B400AF054B1B781A46054B1B681344B3
:102DD000034A136000BFBD4680BC70470C00002052
:102DE0005807002080B400AF024B1B681846BD4650
:102DF00080BC70475807002080B584B000AF786071
:102E0000FFF7F0FFB8607B68FB60FB68B3F1FF3F42
:102E100005D00A4B1B781A46FB681344FB6000BFC1
:102E2000FFF7E0FF0246BB68D31AFA689A42F7D868
:102E300000BF00BF1037BD4680BD00BF0C000020A2
:102E400080B485B000AF78607B6803F00703FB6057
:102E50000C4BDB68BB60BA684FF6FF031340BB60E6
:102E6000FB681A02BB68134343F0BF6343F40033AB
:102E7000BB60044ABB68D36000BF1437BD4680BC4A
:102E8000704700BF00ED00E080B400AF044BDB688A
:102E90001B0A03F007031846BD4680BC704700BFFD
:102EA00000ED00E080B483B000AF0346FB7197F9FA
:102EB0000730002B0BDBFB7903F01F02064997F963
:102EC00007305B09012000FA02F241F8232000BF1D
:102ED0000C37BD4680BC704700E100E080B483B091
:102EE00000AF03463960FB7197F90730002B0ADB0E
:102EF0003B68DAB20C4997F907301201D2B20B44A1
:102F000083F800230AE03B68DAB20849FB7903F052
:102F10000F03043B1201D2B20B441A7600BF0C37E8
:102F2000BD4680BC704700BF00E100E000ED00E05E
:102F300080B489B000AFF860B9607A60FB6803F0D4
:102F40000703FB61FB69C3F10703042B28BF0423BC
:102F5000BB61FB690433062B02D9FB69033B00E02C
:102F600000237B614FF0FF32BB6902FA03F3DA43BF
:102F7000BB681A407B699A404FF0FF317B6901FAC8
:102F800003F3D9437B680B40134318462437BD46EF
:102F900080BC704780B582B000AF78607B68013B31
:102FA000B3F1807F01D301230FE00A4A7B68013B24
:102FB00053600F214FF0FF30FFF790FF054B0022C9
:102FC0009A60044B07221A60002318460837BD4652
:102FD00080BD00BF10E000E080B582B000AF786037
:102FE0007868FFF72DFF00BF0837BD4680BD80B56C
:102FF00086B000AF0346B9607A60FB7300237B6143
:10300000FFF742FF78617A68B9687869FFF790FF47
:10301000024697F90F3011461846FFF75FFF00BFD1
:103020001837BD4680BD80B582B000AF0346FB7146
:1030300097F907301846FFF735FF00BF0837BD4640
:1030400080BD80B582B000AF78607868FFF7A2FFDE
:10305000034618460837BD4680BD80B485B000AF32
:1030600078600023FB737B6893F82130DBB2022B7E
:1030700008D07B6804229A637B68002283F82020B2
:10308000012320E07B681B681A687B681B6822F0BC
:103090000E021A607B681B681A687B681B6822F046
:1030A00001021A607B681A6C7B68DB6B012101FAF4
:1030B00002F25A607B68012283F821207B6800229B
:1030C00083F82020FB7B18461437BD4680BC704730
:1030D00080B584B000AF78600023FB737B6893F801
:1030E0002130DBB2022B05D07B6804229A630123D6
:1030F000FB7351E07B681B681A687B681B6822F0D1
:103100000E021A607B681B681A687B681B6822F0D5
:1031100001021A607B681B68224A934229D07B68AF
:103120001B68214A934222D07B681B681F4A934246
:103130001AD07B681B681E4A934212D07B681B68BA
:103140001C4A93420AD07B681B681B4A934202D1F7
:103150004FF480130EE04FF080730BE04FF4803398
:1031600008E04FF4805305E04FF4807302E0102331
:1031700000E00123114A53607B68012283F821207B
:103180007B68002283F820207B685B6B002B03D0D8
:103190007B685B6B78689847FB7B18461037BD46A9
:1031A00080BD00BF080002401C0002403000024009
:1031B00044000240580002406C00024000000240FF
:1031C00080B48BB000AF7860396000237B6200234D
:1031D0003B6269E101227B6A02FA03F3FB613B680F
:1031E0001B68FA691340BB61BA69FB699A4240F0F7
:1031F00058813B685B689A4A93425ED0984A9342F2
:1032000075D8984A934258D0964A93426FD8964AB6
:10321000934252D0944A934269D8944A93424CD0F4
:10322000924A934263D8924A934246D0904A93423C
:103230005DD8122B2AD8122B59D801A252F823F0AC
:10324000BB32000895320008A7320008E9320008B6
:10325000EF320008EF320008EF320008EF320008CA
:10326000EF320008EF320008EF320008EF320008BA
:10327000EF320008EF320008EF320008EF320008AA
:10328000EF3200089D320008B1320008794A9342BB
:1032900013D02CE03B68DB683B6229E03B68DB68CD
:1032A00004333B6224E03B68DB6808333B621FE089
:1032B0003B68DB680C333B621AE03B689B68002B81
:1032C00002D104233B6213E03B689B68012B05D1CC
:1032D00008233B627B68FA691A6109E008233B62B4
:1032E0007B68FA695A6103E000233B6200E000BF9B
:1032F000BB69FF2B01D87B6801E07B6804337B61ED
:10330000BB69FF2B02D87B6A9B0002E07B6A083B0B
:103310009B003B617B691A680F213B6901FA03F34B
:10332000DB431A40396A3B6901FA03F31A437B69AC
:103330001A603B685B6803F08053002B00F0B1809B
:103340004D4B9B694C4A43F0010393614A4B9B6987
:1033500003F00103BB60BB68484A7B6A9B080233E9
:1033600052F82330FB607B6A03F003039B000F22BB
:1033700002FA03F3DB43FA681340FB607B68404AC0
:10338000934213D07B683F4A93420DD07B683E4AFC
:10339000934207D07B683D4A934201D1032306E064
:1033A000042304E0022302E0012300E000237A6A00
:1033B00002F0030292009340FA681343FB602F4926
:1033C0007B6A9B080233FA6841F823203B685B68FC
:1033D00003F48013002B06D02D4B9A682C49BB694F
:1033E00013438B6006E02A4B9A68BB69DB4328498C
:1033F00013408B603B685B6803F40013002B06D01E
:10340000234BDA682249BB691343CB6006E0204BAB
:10341000DA68BB69DB431E491340CB603B685B68DD
:1034200003F40033002B06D0194B5A681849BB69C6
:1034300013434B6006E0164B5A68BB69DB431449E3
:1034400013404B603B685B6803F48033002B21D052
:103450000F4B1A680E49BB6913430B6021E000BF94
:103460000000321000003110000022100000211076
:103470000000121000001110001002400000014076
:1034800000080140000C0140001001400014014000
:10349000000401400B4B1A68BB69DB430949134028
:1034A0000B607B6A01337B623B681A687B6A22FA95
:1034B00003F3002B7FF48EAE00BF00BF2C37BD4658
:1034C00080BC70470004014080B485B000AF7860D4
:1034D0000B467B807B689A687B881340002B02D068
:1034E0000123FB7301E00023FB73FB7B18461437B9
:1034F000BD4680BC704780B483B000AF78600B4697
:103500007B8013467B707B78002B03D07A887B68A6
:103510001A6103E07B881A047B681A6100BF0C37CC
:10352000BD4680BC7047000080B584B000AF7860B5
:103530007B68002B01D101232BE17B6893F83D30A0
:10354000DBB2002B06D17B68002283F83C20786830
:10355000FDF79AFE7B68242283F83D207B681B6878
:103560001A687B681B6822F001021A607B681B687E
:103570001A687B681B6842F400421A607B681B680B
:103580001A687B681B6822F400421A6001F032F866
:10359000F8607B685B68814A934207D8FB68804A81
:1035A000934294BF01230023DBB206E0FB687D4A0F
:1035B000934294BF01230023DBB2002B01D00123EF
:1035C000E7E0FB68784AA2FB03239B0CBB607B68A7
:1035D0001B685B6823F03F017B681B68BA680A437D
:1035E0005A607B681B681B6A23F03F017B685B683D
:1035F0006A4A934202D8BB68013309E0BB684FF4C2
:10360000967202FB03F3694AA2FB03239B09013371
:103610007A6812680B4313627B681B68DB6923F4CA
:103620004F4222F0FF027B685B685C498B4219D8ED
:10363000FB68591E7B685B685B00B1FBF3F3591CA8
:1036400040F6FC730B40002B0AD0FB68591E7B68C8
:103650005B685B00B1FBF3F30133C3F30B0351E091
:1036600004234FE07B689B68002B11D1FB68581E38
:103670007B6859680B465B000B44B0FBF3F30133E6
:10368000C3F30B03002B0CBF01230023DBB212E0BA
:10369000FB68581E7B6859680B469B000B449900D9
:1036A0000B44B0FBF3F30133C3F30B03002B0CBF4C
:1036B00001230023DBB2002B01D0012322E07B6831
:1036C0009B68002B0ED1FB68581E7B6859680B461F
:1036D0005B000B44B0FBF3F30133C3F30B0343F480
:1036E00000430FE0FB68581E7B6859680B469B003F
:1036F0000B4499000B44B0FBF3F30133C3F30B030A
:1037000043F44043796809681343CB617B681B68C5
:103710001B6823F0C0017B68DA697B681B6A1A4367
:103720007B681B680A431A607B681B689B6823F4EC
:10373000034323F0FF037A6811697A68D268114362
:103740007A6812680B4393607B681B68DB6823F020
:10375000FF017B685A697B689B691A437B681B6819
:103760000A43DA607B681B681A687B681B6842F052
:1037700001021A607B6800221A647B68202283F8A9
:103780003D207B6800221A637B68002283F83E207C
:10379000002318461037BD4680BD00BFA08601003B
:1037A0007F841E00FF083D0083DE1B43D34D621063
:1037B00080B588B002AFF8607A601A460B467B810C
:1037C00013463B81FFF70EFB7861FB6893F83D30B1
:1037D000DBB2202B40F0E0807B69009319230122AB
:1037E0007049F86800F064F90346002B01D0022309
:1037F000D3E0FB6893F83C30012B01D10223CCE0ED
:10380000FB68012283F83C20FB681B681B6803F0FF
:103810000103012B07D0FB681B681A68FB681B6853
:1038200042F001021A60FB681B681A68FB681B689B
:1038300022F400621A60FB68212283F83D20FB68B5
:10384000102283F83E20FB6800221A64FB687A6825
:103850005A62FB683A895A85FB685B8D9AB2FB68AD
:103860001A85FB68504ADA6279897B693A6AF86896
:1038700000F09CF80346002B01D001238DE00023CB
:103880003B61FB681B685B693B61FB681B689B696C
:103890003B613B6966E07A69396AF86800F022FAB0
:1038A0000346002B0DD0FB681B6C042B07D1FB6873
:1038B0001B681A68FB681B6842F400721A600123D7
:1038C0006BE0FB685B6A1A78FB681B681A61FB682F
:1038D0005B6A5A1CFB685A62FB685B8D9BB2013BBA
:1038E0009AB2FB685A85FB681B8D013B9AB2FB6854
:1038F0001A85FB681B685B6903F00403042B1BD16A
:10390000FB681B8D002B17D0FB685B6A1A78FB687D
:103910001B681A61FB685B6A5A1CFB685A62FB6889
:103920005B8D9BB2013B9AB2FB685A85FB681B8D8D
:10393000013B9AB2FB681A857A69396AF86800F027
:1039400019FA0346002B0DD0FB681B6C042B07D122
:10395000FB681B681A68FB681B6842F400721A60F7
:1039600001231AE0FB681B8D002B94D1FB681B68B8
:103970001A68FB681B6842F400721A60FB68202218
:1039800083F83D20FB68002283F83E20FB6800227C
:1039900083F83C20002300E0022318461837BD4678
:1039A00080BD00BF020010000000FFFF80B588B09E
:1039B00002AFF8607A603B600B467B81FB68DB6A94
:1039C0007B617B69082B06D07B69012B03D07B6967
:1039D00013F5803F08D1FB681B681A68FB681B68F9
:1039E00042F480721A600BE0FB681B6B122B07D14C
:1039F000FB681B681A68FB681B6842F480721A60D7
:103A00003B6800937B6800224FF00111F86800F0DA
:103A10004FF80346002B0DD0FB681B681B6803F4AE
:103A20008073B3F5807F03D1FB684FF400721A6492
:103A3000032335E0FB681B69B3F5804F08D17B8910
:103A4000DBB21A46FB681B6802F0FE021A611BE03B
:103A50007B89DB11DBB203F00603DBB263F00F03FB
:103A6000DAB2FB681B681A613B687A680E49F8682D
:103A700000F098F80346002B01D0012310E07B8969
:103A8000DAB2FB681B681A613B687A680749F86814
:103A900000F088F80346002B01D0012300E000234A
:103AA00018461837BD4680BD08000100020001001D
:103AB00080B584B000AFF860B9603B601346FB711D
:103AC00048E03B68B3F1FF3F44D0FFF78BF9024673
:103AD000BB69D31A3A689A4202D33B68002B39D1AA
:103AE000BB681B0CDBB2012B0DD1FB681B685B694B
:103AF000DA43BB6813409BB2002B0CBF01230023A9
:103B0000DBB21A460CE0FB681B689B69DA43BB68B2
:103B100013409BB2002B0CBF01230023DBB21A46DB
:103B2000FB799A4216D1FB6800221A63FB682022B7
:103B300083F83D20FB68002283F83E20FB681B6C65
:103B400043F02002FB681A64FB68002283F83C20E3
:103B5000012323E0BB681B0CDBB2012B0DD1FB68FA
:103B60001B685B69DA43BB6813409BB2002B0CBF38
:103B700001230023DBB21A460CE0FB681B689B693B
:103B8000DA43BB6813409BB2002B0CBF0123002318
:103B9000DBB21A46FB799A4293D0002318461037BD
:103BA000BD4680BD80B584B000AFF860B9607A6072
:103BB0003B6071E0FB681B685B6903F48063B3F5ED
:103BC000806F23D1FB681B681A68FB681B6842F48E
:103BD00000721A60FB681B686FF480625A61FB68B0
:103BE00000221A63FB68202283F83D20FB68002234
:103BF00083F83E20FB681B6C43F00402FB681A64E8
:103C0000FB68002283F83C20012367E07B68B3F166
:103C1000FF3F41D0FFF7E6F802463B68D31A7A68C7
:103C20009A4202D37B68002B36D1BB681B0CDBB2F7
:103C3000012B0CD1FB681B685B69DA43BB6813403E
:103C40009BB2002B14BF01230023DBB20BE0FB6807
:103C50001B689B69DA43BB6813409BB2002B14BFFF
:103C600001230023DBB2002B16D0FB6800221A636D
:103C7000FB68202283F83D20FB68002283F83E2069
:103C8000FB681B6C43F02002FB681A64FB6800228F
:103C900083F83C20012321E0BB681B0CDBB2012B25
:103CA0000CD1FB681B685B69DA43BB6813409BB2AD
:103CB000002B14BF01230023DBB20BE0FB681B6861
:103CC0009B69DA43BB6813409BB2002B14BF0123EE
:103CD0000023DBB2002B7FF46DAF002318461037B2
:103CE000BD4680BD80B584B000AFF860B9607A6031
:103CF00034E0F86800F086F80346002B01D0012379
:103D000034E0BB68B3F1FF3F28D0FFF76BF8024601
:103D10007B68D31ABA689A4202D3BB68002B1DD1C4
:103D2000FB681B685B6903F08003802B16D0FB687F
:103D300000221A63FB68202283F83D20FB680022E2
:103D400083F83E20FB681B6C43F02002FB681A647A
:103D5000FB68002283F83C20012307E0FB681B6816
:103D60005B6903F08003802BC3D100231846103712
:103D7000BD4680BD80B584B000AFF860B9607A60A0
:103D800034E0F86800F03EF80346002B01D0012330
:103D900034E0BB68B3F1FF3F28D0FFF723F80246B9
:103DA0007B68D31ABA689A4202D3BB68002B1DD134
:103DB000FB681B685B6903F00403042B16D0FB68E7
:103DC00000221A63FB68202283F83D20FB68002252
:103DD00083F83E20FB681B6C43F02002FB681A64EA
:103DE000FB68002283F83C20012307E0FB681B6886
:103DF0005B6903F00403042BC3D10023184610377A
:103E0000BD4680BD80B483B000AF78607B681B681E
:103E10005B6903F48063B3F5806F1BD17B681B681B
:103E20006FF480625A617B6800221A637B682022EB
:103E300083F83D207B68002283F83E207B681B6C62
:103E400043F004027B681A647B68002283F83C20FC
:103E5000012300E0002318460C37BD4680BC7047A4
:103E600080B586B000AF78607B68002B01D101235C
:103E700072E27B681B6803F00103002B00F087806F
:103E8000924B5B6803F00C03042B0CD08F4B5B68E8
:103E900003F00C03082B12D18C4B5B6803F48033C6
:103EA000B3F5803F0BD1894B1B6803F40033002B23
:103EB0006CD07B685B68002B68D101234CE27B6887
:103EC0005B68B3F5803F06D1804B1B687F4A43F4A3
:103ED000803313602EE07B685B68002B0CD17B4B3A
:103EE0001B687A4A23F480331360784B1B68774A47
:103EF00023F4802313601DE07B685B68B3F5A02F7B
:103F00000CD1724B1B68714A43F4802313606F4BD2
:103F10001B686E4A43F4803313600BE06B4B1B68E5
:103F20006A4A23F480331360684B1B68674A23F4A2
:103F3000802313607B685B68002B13D0FEF752FF71
:103F4000386108E0FEF74EFF02463B69D31A642B46
:103F500001D9032300E25D4B1B6803F40033002BFF
:103F6000F0D014E0FEF73EFF386108E0FEF73AFFBC
:103F700002463B69D31A642B01D90323ECE1534B6E
:103F80001B6803F40033002BF0D100E000BF7B6816
:103F90001B6803F00203002B63D04C4B5B6803F0FB
:103FA0000C03002B0BD0494B5B6803F00C03082B70
:103FB0001CD1464B5B6803F48033002B16D1434B76
:103FC0001B6803F00203002B05D07B681B69012BE3
:103FD00001D00123C0E13D4B1B6823F0F8027B6850
:103FE0005B69DB00394913430B603AE07B681B696E
:103FF000002B20D0364B01221A60FEF7F3FE386109
:1040000008E0FEF7EFFE02463B69D31A022B01D906
:104010000323A1E12D4B1B6803F00203002BF0D01A
:104020002A4B1B6823F0F8027B685B69DB00274999
:1040300013430B6015E0264B00221A60FEF7D2FEF8
:10404000386108E0FEF7CEFE02463B69D31A022B28
:1040500001D9032380E11D4B1B6803F00203002BF1
:10406000F0D17B681B6803F00803002B3AD07B6813
:104070009B69002B19D0174B01221A60FEF7B2FE84
:10408000386108E0FEF7AEFE02463B69D31A022B08
:1040900001D9032360E10D4B5B6A03F00203002B9F
:1040A000F0D0012000F0CEFA1CE00A4B00221A608A
:1040B000FEF798FE38610FE0FEF794FE02463B697A
:1040C000D31A022B08D9032346E100BF0010024097
:1040D0000000424280044242924B5B6A03F00203BA
:1040E000002BE9D17B681B6803F00403002B00F070
:1040F000A6800023FB758B4BDB6903F08053002BFC
:104100000DD1884BDB69874A43F08053D361854BDF
:10411000DB6903F08053BB60BB680123FB75824BF6
:104120001B6803F48073002B18D17F4B1B687E4AF9
:1041300043F480731360FEF755FE386108E0FEF724
:1041400051FE02463B69D31A642B01D9032303E1D4
:10415000754B1B6803F48073002BF0D07B68DB6821
:10416000012B06D16F4B1B6A6E4A43F001031362A9
:104170002DE07B68DB68002B0CD16A4B1B6A694A17
:1041800023F001031362674B1B6A664A23F00403A2
:1041900013621CE07B68DB68052B0CD1614B1B6A4A
:1041A000604A43F0040313625E4B1B6A5D4A43F0AE
:1041B000010313620BE05B4B1B6A5A4A23F00103B5
:1041C0001362584B1B6A574A23F0040313627B683F
:1041D000DB68002B15D0FEF705FE38610AE0FEF71C
:1041E00001FE02463B69D31A41F28832934201D95B
:1041F0000323B1E04B4B1B6A03F00203002BEED00C
:1042000014E0FEF7EFFD38610AE0FEF7EBFD024631
:104210003B69D31A41F28832934201D903239BE0D0
:10422000404B1B6A03F00203002BEED1FB7D012BF8
:1042300005D13C4BDB693B4A23F08053D3617B685B
:10424000DB69002B00F08780364B5B6803F00C03C2
:10425000082B61D07B68DB69022B46D1334B0022EF
:104260001A60FEF7BFFD386108E0FEF7BBFD0246AD
:104270003B69D31A022B01D903236DE0294B1B683C
:1042800003F00073002BF0D17B681B6AB3F5803F0D
:1042900008D1244B5B6823F400327B689B6821497A
:1042A00013434B601F4B5B6823F474127B68196ADD
:1042B0007B685B6A0B431B4913434B601B4B01221A
:1042C0001A60FEF78FFD386108E0FEF78BFD0246AD
:1042D0003B69D31A022B01D903233DE0114B1B6824
:1042E00003F00073002BF0D035E0104B00221A6071
:1042F000FEF778FD386108E0FEF774FD02463B6981
:10430000D31A022B01D9032326E0064B1B6803F0C6
:104310000073002BF0D11EE07B68DB69012B07D115
:10432000012319E00010024000700040600042428A
:104330000B4B5B68FB60FB6803F480327B681B6A95
:104340009A4206D1FB6803F470127B685B6A9A425A
:1043500001D0012300E0002318461837BD4680BD78
:104360000010024080B584B000AF786039607B688F
:10437000002B01D10123D0E06A4B1B6803F0070337
:104380003A689A4210D9674B1B6823F007026549C7
:104390003B6813430B60634B1B6803F007033A68E9
:1043A0009A4201D00123B8E07B681B6803F0020346
:1043B000002B20D07B681B6803F00403002B05D082
:1043C000594B5B68584A43F4E06353607B681B6851
:1043D00003F00803002B05D0534B5B68524A43F4AB
:1043E00060535360504B5B6823F0F0027B689B681E
:1043F0004D4913434B607B681B6803F00103002B9E
:1044000040D07B685B68012B07D1474B1B6803F4E6
:104410000033002B15D101237FE07B685B68022B02
:1044200007D1414B1B6803F00073002B09D1012316
:1044300073E03D4B1B6803F00203002B01D1012305
:104440006BE0394B5B6823F003027B685B6836499D
:1044500013434B60FEF7C6FCF8600AE0FEF7C2FCAF
:104460000246FB68D31A41F28832934201D90323F2
:1044700053E02D4B5B6803F00C027B685B689B008C
:104480009A42EBD1274B1B6803F007033A689A4224
:1044900010D2244B1B6823F0070222493B681343C8
:1044A0000B60204B1B6803F007033A689A4201D067
:1044B000012332E07B681B6803F00403002B08D063
:1044C000194B5B6823F4E0627B68DB681649134391
:1044D0004B607B681B6803F00803002B09D0124B6C
:1044E0005B6823F460527B681B69DB000E49134351
:1044F0004B6000F021F802460B4B5B681B0903F090
:104500000F030A49CB5C22FA03F3094A1360094BF3
:104510001B681846FEF724FC002318461037BD46DA
:1045200080BD00BF0020024000100240F0A500083E
:10453000040000200800002080B487B000AF0023F2
:10454000FB600023BB6000237B6100237B600023B2
:104550003B611E4B5B68FB60FB6803F00C03042BA4
:1045600002D0082B03D027E0194B3B6127E0FB6802
:104570009B0C03F00F03174AD35C7B60FB6803F4CA
:104580008033002B10D0114B5B685B0C03F00103F0
:10459000114AD35CBB607B680D4A03FB02F2BB6827
:1045A000B2FBF3F37B6104E07B680C4A02FB03F38C
:1045B0007B617B693B6102E0054B3B6100BF3B696E
:1045C00018461C37BD4680BC704700BF0010024033
:1045D00000127A0008A6000818A6000800093D008D
:1045E00080B400AF024B1B681846BD4680BC7047C4
:1045F0000400002080B500AFFFF7F2FF0246054B34
:104600005B681B0A03F007030349CB5C22FA03F340
:10461000184680BD0010024000A6000880B500AF1B
:10462000FFF7DEFF0246054B5B68DB0A03F007037A
:104630000349CB5C22FA03F3184680BD0010024008
:1046400000A6000880B485B000AF78600A4B1B68F4
:104650000A4AA2FB03235B0A7A6802FB03F3FB60AE
:1046600000BFFB685A1EFA60002BF9D100BF00BFE3
:104670001437BD4680BC704704000020D34D621043
:1046800080B582B000AF78607B68002B01D1012338
:1046900042E07B6893F84130DBB2002B06D17B68A7
:1046A000002283F840207868FEF78EFA7B68242287
:1046B00083F841207B681B68DA687B681B6822F4FA
:1046C0000052DA60786800F0B7FD7B681B681A69F1
:1046D0007B681B6822F490421A617B681B685A69E8
:1046E0007B681B6822F02A025A617B681B68DA68C3
:1046F0007B681B6842F40052DA607B6800225A64CF
:104700007B68202283F841207B68202283F84220A6
:104710007B6800225A63002318460837BD4680BDD7
:1047200080B58AB002AFF860B9603B601346FB8089
:1047300000237B61FB6893F84130DBB2202B75D1FD
:10474000BB68002B02D0FB88002B01D101236EE057
:10475000FB6800225A64FB68212283F84120FEF79F
:1047600041FB7861FB68FA889A84FB68FA88DA84EE
:10477000FB689B68B3F5805F08D1FB681B69002B61
:1047800004D10023FB61BB68BB6103E0BB68FB6134
:104790000023BB612EE03B6800937B6900228021EF
:1047A000F86800F01CFB0346002B05D0FB682022B4
:1047B00083F8412003233AE0FB69002B0BD1BB694E
:1047C0001B881A46FB681B68C2F308025A60BB6963
:1047D0000233BB6107E0FB691A78FB681B685A600B
:1047E000FB690133FB61FB68DB8C9BB2013B9AB236
:1047F000FB68DA84FB68DB8C9BB2002BCBD13B6877
:1048000000937B6900224021F86800F0E8FA034633
:10481000002B05D0FB68202283F84120032306E00B
:10482000FB68202283F84120002300E00223184681
:104830002037BD4680BD80B584B000AFF860B96058
:104840001346FB80FB6893F84230DBB2202B12D179
:10485000BB68002B02D0FB88002B01D101230BE0A9
:10486000FB6800221A63FB881A46B968F86800F0F2
:104870000FFB034600E0022318461037BD4680BDFB
:1048800080B5BAB000AF78607B681B681B68C7F85A
:10489000E4307B681B68DB68C7F8E0307B681B6826
:1048A0005B69C7F8DC300023C7F8D8300023C7F8AD
:1048B000D430D7F8E43003F00F03C7F8D830D7F876
:1048C000D830002B0FD1D7F8E43003F02003002BB1
:1048D00009D0D7F8E03003F02003002B03D078682C
:1048E00000F0ECFB5BE2D7F8D830002B00F0DE8064
:1048F000D7F8DC3003F00103002B06D1D7F8E03005
:1049000003F49073002B00F0D180D7F8E43003F06B
:104910000103002B0BD0D7F8E03003F48073002B99
:1049200005D07B685B6C43F001027B685A64D7F862
:10493000E43003F00403002B0BD0D7F8DC3003F095
:104940000103002B05D07B685B6C43F002027B689F
:104950005A64D7F8E43003F00203002B0BD0D7F8E9
:10496000DC3003F00103002B05D07B685B6C43F067
:1049700004027B685A64D7F8E43003F00803002B84
:1049800011D0D7F8E03003F02003002B05D1D7F881
:10499000DC3003F00103002B05D07B685B6C43F037
:1049A00008027B685A647B685B6C002B00F0F28124
:1049B000D7F8E43003F02003002B08D0D7F8E0301C
:1049C00003F02003002B02D0786800F077FB7B68AF
:1049D0001B685B6903F04003002B14BF0123002315
:1049E000DBB2C7F8D4307B685B6C03F00803002BA4
:1049F00003D1D7F8D430002B4FD0786800F081FA7B
:104A00007B681B685B6903F04003002B41D07B6827
:104A10001B681433C7F89C30D7F89C3053E8003F2C
:104A2000C7F89830D7F8983023F04003C7F8D03053
:104A30007B681B681433D7F8D020C7F8A820C7F8C4
:104A4000A430D7F8A410D7F8A82041E80023C7F86D
:104A5000A030D7F8A030002BD9D17B68DB6B002BBE
:104A600013D07B68DB6B7E4A5A637B68DB6B18462E
:104A7000FEF72EFB0346002B16D07B68DB6B5B6BCF
:104A80007A68D26B104698470EE0786800F093F988
:104A90000AE0786800F08FF906E0786800F08BF99A
:104AA0007B6800225A6475E100BF73E17B681B6B71
:104AB000012B40F04F81D7F8E43003F01003002BB6
:104AC00000F04881D7F8E03003F01003002B00F02D
:104AD00041810023BB607B681B681B68BB607B68EF
:104AE0001B685B68BB60BB687B681B685B6903F025
:104AF0004003002B00F0B6807B68DB6B1B685B68B3
:104B0000A7F8BE30B7F8BE30002B00F045817B68B7
:104B10009B8DB7F8BE209A4280F03E817B68B7F843
:104B2000BE20DA857B68DB6B9B69202B00F08880D8
:104B30007B681B680C33C7F88830D7F8883053E897
:104B4000003FC7F88430D7F8843023F48073C7F867
:104B5000B8307B681B680C33D7F8B820C7F89420AE
:104B6000C7F89030D7F89010D7F8942041E8002388
:104B7000C7F88C30D7F88C30002BD9D17B681B68F4
:104B800014337B677B6F53E8003F3B673B6F23F039
:104B90000103C7F8B4307B681B681433D7F8B4201E
:104BA000C7F88020FB67F96FD7F8802041E8002321
:104BB000BB67BB6F002BE1D17B681B6814333B667E
:104BC0003B6E53E8003FFB65FB6D23F04003C7F8E5
:104BD000B0307B681B681433D7F8B020FA66BB6628
:104BE000B96EFA6E41E800237B667B6E002BE3D141
:104BF0007B68202283F842207B6800221A637B684E
:104C00001B680C33FB64FB6C53E8003FBB64BB6C5C
:104C100023F01003C7F8AC307B681B680C33D7F85F
:104C2000AC20BA657B65796DBA6D41E800233B65C0
:104C30003B6D002BE3D17B68DB6B1846FEF70DFA6A
:104C40007B6802225A637B689A8D7B68DB8D9BB2FE
:104C5000D31A9BB21946786800F0B6F89CE000BF02
:104C6000C74F00087B689A8D7B68DB8D9BB2D31A97
:104C7000A7F8CE307B68DB8D9BB2002B00F08E80D6
:104C8000B7F8CE30002B00F089807B681B680C33AE
:104C9000BB63BB6B53E8003F7B637B6B23F4907378
:104CA000C7F8C8307B681B680C33D7F8C8207A6413
:104CB0003B64396C7A6C41E80023FB63FB6B002B8F
:104CC000E3D17B681B6814337B627B6A53E8003F47
:104CD0003B623B6A23F00103C7F8C4307B681B6862
:104CE0001433D7F8C4203A63FB62F96A3A6B41E89F
:104CF0000023BB62BB6A002BE3D17B68202283F8D0
:104D000042207B6800221A637B681B680C333B617E
:104D10003B6953E8003FFB60FB6823F01003C7F8D2
:104D2000C0307B681B680C33D7F8C020FA61BB61C8
:104D3000B969FA6941E800237B617B69002BE3D103
:104D40007B6802225A63B7F8CE301946786800F0C3
:104D50003BF823E0D7F8E43003F08003002B09D0C0
:104D6000D7F8E03003F08003002B03D0786800F020
:104D70003EF914E0D7F8E43003F04003002B0ED0E6
:104D8000D7F8E03003F04003002B08D0786800F03B
:104D90007DF904E000BF02E000BF00E000BFE8379B
:104DA000BD4680BD80B483B000AF786000BF0C37D3
:104DB000BD4680BC704780B483B000AF786000BF50
:104DC0000C37BD4680BC704780B483B000AF7860BC
:104DD0000B467B8000BF0C37BD4680BC704780B55A
:104DE00086B000AFF860B9603B601346FB713BE0F2
:104DF0003B6AB3F1FF3F37D0FDF7F4FF02463B6853
:104E0000D31A3A6A9A4202D33B6A002B01D1032398
:104E10003AE0FB681B68DB6803F00403002B23D037
:104E2000BB68802B20D0BB68402B1DD0FB681B6863
:104E30001B6803F00803082B16D100237B61FB6875
:104E40001B681B687B61FB681B685B687B617B6917
:104E5000F86800F056F8FB6808225A64FB680022E4
:104E600083F8402001230FE0FB681B681A68BB68C9
:104E70001340BA689A420CBF01230023DBB21A46E2
:104E8000FB799A42B4D0002318461837BD4680BD3E
:104E900080B485B000AFF860B9601346FB80FB6852
:104EA000BA689A62FB68FA889A85FB68FA88DA859C
:104EB000FB6800225A64FB68222283F84220FB68C8
:104EC0001B69002B07D0FB681B68DA68FB681B684E
:104ED00042F48072DA60FB681B685A69FB681B68E1
:104EE00042F001025A61FB681B68DA68FB681B68C4
:104EF00042F02002DA60002318461437BD4680BC19
:104F0000704780B495B000AF78607B681B680C3345
:104F10007B637B6B53E8003F3B633B6B23F49073F5
:104F2000FB647B681B680C33FA6C3A64FB63F96BB7
:104F30003A6C41E80023BB63BB6B002BE5D17B6877
:104F40001B6814333B623B6A53E8003FFB61FB691B
:104F500023F00103BB647B681B681433BA6CFA62EC
:104F6000BB62B96AFA6A41E800237B627B6A002B64
:104F7000E5D17B681B6B012B19D17B681B680C3357
:104F8000FB60FB6853E8003FBB60BB6823F0100385
:104F90007B647B681B680C337A6CBA617B617969CE
:104FA000BA6941E800233B613B69002BE5D17B688E
:104FB000202283F842207B6800221A6300BF543706
:104FC000BD4680BC704780B584B000AF78607B6818
:104FD0005B6AFB60FB680022DA85FB680022DA84EA
:104FE000F868FFF7E8FE00BF1037BD4680BD80B40B
:104FF00085B000AF78607B6893F84130DBB2212B3D
:105000003ED17B689B68B3F5805F14D17B681B69D8
:10501000002B10D17B681B6AFB60FB681B881A465B
:105020007B681B68C2F308025A607B681B6A9A1C83
:105030007B681A6208E07B681B6A591C7A681162F7
:105040001A787B681B685A607B68DB8C9BB2013BDB
:105050009BB27A681946D184002B0FD17B681B68FC
:10506000DA687B681B6822F08002DA607B681B6864
:10507000DA687B681B6842F04002DA60002300E0D7
:10508000022318461437BD4680BC704780B582B0F5
:1050900000AF78607B681B68DA687B681B6822F069
:1050A0004002DA607B68202283F841207868FFF7AD
:1050B00079FE002318460837BD4680BD80B58CB008
:1050C00000AF78607B6893F84230DBB2222B40F06F
:1050D000AE807B689B68B3F5805F17D17B681B69E6
:1050E000002B13D10023FB627B689B6ABB627B6849
:1050F0001B685B689BB2C3F308039AB2BB6A1A8051
:105100007B689B6A9A1C7B689A6226E07B689B6A34
:10511000FB620023BB627B689B68B3F5805F07D0AE
:105120007B689B68002B0AD17B681B69002B06D12A
:105130007B681B685B68DAB2FB6A1A7008E07B6800
:105140001B685B68DBB203F07F03DAB2FB6A1A709C
:105150007B689B6A5A1C7B689A627B68DB8D9BB27A
:10516000013B9BB27A681946D185002B5DD17B68E3
:105170001B68DA687B681B6822F02002DA607B68B3
:105180001B68DA687B681B6822F48072DA607B68CF
:105190001B685A697B681B6822F001025A617B68B0
:1051A000202283F842207B6800225A637B681B6BB5
:1051B000012B35D17B6800221A637B681B680C3396
:1051C0007B617B6953E8003F3B613B6923F010033F
:1051D0007B627B681B680C337A6A3A62FB61F9690F
:1051E0003A6A41E80023BB61BB69002BE5D17B68CB
:1051F0001B681B6803F01003102B0AD10023FB600F
:105200007B681B681B68FB607B681B685B68FB60D6
:10521000FB687B689B8D19467868FFF7D5FD02E037
:105220007868FCF7E3FB002302E0002300E00223A0
:1052300018463037BD4680BD80B584B000AF786079
:105240007B681B681B6923F440517B68DA687B68C4
:105250001B680A431A617B689A687B681B691A435A
:105260007B685B691343BB607B681B68DB6823F466
:10527000B05323F00C037A681268B9680B43D3600B
:105280007B681B685B6923F440717B689A697B6863
:105290001B680A435A617B681B682C4A934203D1FE
:1052A000FFF7BCF9F86002E0FFF7A4F9F860FA68CC
:1052B00013469B0013449A001A447B685B689B006A
:1052C000B2FBF3F3224AA2FB03235B091901FA683C
:1052D00013469B0013449A001A447B685B689B004A
:1052E000B2FBF3F21A4BA3FB02035B09642000FB41
:1052F00003F3D31A1B013233154AA2FB03235B09C4
:1053000003F0F0031944FA6813469B0013449A0013
:105310001A447B685B689B00B2FBF3F20C4BA3FB67
:1053200002035B09642000FB03F3D31A1B01323331
:10533000074AA2FB03235B0903F00F027B681B688B
:105340000A449A6000BF1037BD4680BD0038014056
:105350001F85EB510A22002100F07CB8242B2DE997
:10536000F0478646904601D8012B06D101F07AF825
:10537000162303600020BDE8F0870D4633482A4617
:1053800015F8014B065D16F00806F8D12D2C10D14A
:1053900001262C78951C33F0100215D1302C0DD13C
:1053A0002A7802F0DF02582A08D16C7802351023DF
:1053B0000AE02B2C04BF2C78951CECE7002BF6D1CF
:1053C000302C14BF0A230823002206F1004C0CF1F4
:1053D000FF3CBCFBF3F9104603FB19CAA4F13007EC
:1053E000092F0FD83C46A3421BDD571C07D081452F
:1053F00014D301D1A24511DB012200FB034015F8B3
:10540000014BEBE7A4F14107192F01D8373CEAE73C
:10541000A4F16107192F04D8573CE4E74FF0FF329D
:10542000EDE7531C08D122236046CEF80030B8F1D6
:10543000000FA0D0691E06E006B14042B8F1000F8F
:1054400099D0002AF6D1C8F8001094E71BA60008EE
:10545000FFF784BF13460A46014602480068FFF77B
:105460007DBF00BF1C000020002B2DE9F0471D462A
:10547000BBBF03F100431D4600232D2388B0144613
:10548000B8BF1446129A109E1370149BDDF84CA0FE
:1054900023F02008B8F1460F05D0B8F1450F00D130
:1054A0000136022300E0032307AA049206AACDE9ED
:1054B00002A2CDE9003622462B4601F09DF8B8F154
:1054C000470F074619D1119BDB070ED500EB0609E4
:1054D0000022002320462946FBF766FA08B1CDF8E2
:1054E0001C903022079B4B451ED33846079B159ACC
:1054F000DB1B136008B0BDE8F087B8F1460F00EB86
:105500000609E5D10378302B0AD10022002320467A
:105510002946FBF749FA18B9C6F10106CAF8006036
:10552000DAF800309944D3E7591C07911A70D9E78B
:10553000F7B50029B6BF2D232B2349420929027054
:10554000437029DD0DF107031D460A27B1FBF7F66D
:105550001A4607FB1614303402F8014C0C46632C33
:10556000314603F1FF33F1DC3031941E03F8011CA6
:105570002346411CAB420AD30DF109039B1AAC42EE
:1055800088BF002302330344181A03B0F0BD13F898
:10559000016B01F8016FEDE7302330318370C1708A
:1055A000031DF1E72DE9F04F91B00C46DDF868805E
:1055B00016461F46054600F00BFF03681846089381
:1055C000FAF7C6FD00230E93D8F800300990073390
:1055D00023F0070303F1080294F818A0D4F800B0F0
:1055E000C8F80020D3E9008929F000430B93CDF8D7
:1055F00028804FF0FF32DDE90A01C4E912899C4B93
:10560000FBF704FA70BBDDE90A014FF0FF32984B5B
:10561000FBF7DEF930BB0022002340464946FBF78A
:10562000CDF910B12D2384F84330924A924BBAF150
:10563000470F8CBF9046984603234FF00009236123
:105640002BF00403236033462146284600970FAA17
:1056500000F0D4F9013040F090804FF0FF3011B0ED
:10566000BDE8F08F42464B4640464946FBF7CEF92F
:1056700048B14B46002BB8BF2D23804AB8BF84F8F1
:1056800043307F4BD3E763680AF0DF015A1C3FD1F8
:105690000623636000224BF48063236006920EAA07
:1056A000CDE904A20DAA03920DF13302CDE9013236
:1056B00063684246009328464B460A91FFF7D4FEA2
:1056C0000A99804647290D9928D1C81C02DB6368D6
:1056D000994240DDAAF1020A5FFA8AFA524601397C
:1056E00004F150000D91FFF723FF0E9A8146131825
:1056F000012A236102DC2268D20701D5013323612C
:105700009DF83330002B9ED02D2384F843309AE748
:105710004729BFD1002BBDD10123BAE7BAF1650FEC
:10572000DCD9BAF1660F18D1002963680BDD21615D
:1057300013B92268D00702D501330B4423614FF01F
:105740000009A165DCE713B92268D20701D502334D
:10575000F4E70123F2E74FF0670A0E9B994205DB5D
:1057600023682161D807EAD54B1CE7E70029CCBFA5
:105770000122C1F102021344E0E723685A0507D46D
:105780002369424631462846B84701302BD164E7A9
:10579000BAF1650F40F2DC80D4E912010022002347
:1057A000FBF702F9002833D0012331462846354A59
:1057B000B84701303FF451AFDDE90D38434502DB16
:1057C0002368D8070FD5DDE9082331462846B847B6
:1057D00001303FF442AF4FF0000908F1FF3804F107
:1057E0001A0AC84509DC23689B0700F10281E068BA
:1057F0000F9B9842B8BF184631E701235246314605
:105800002846B84701303FF428AF09F10109E8E71D
:105810000D9B002B38DC012331462846194AB84736
:1058200001303FF41AAFDDE90D3959EA030302D123
:105830002368D907D7D5DDE9082331462846B8477C
:1058400001303FF40AAF4FF0000A04F11A0B0D9B30
:105850005B42534501DC4B4693E701235A463146F0
:105860002846B84701303FF4F8AE0AF1010AEEE7E6
:10587000FFFFEF7F1FA700081BA7000827A700084E
:1058800023A700082BA70008A36DDDF838A0534517
:10589000A8BF5346002B994636DC4FF0000B29EA8F
:1058A000E97904F11A02A36D0A93A3EB09035B459E
:1058B00031DC0D9B9A453ADC2368DA0737D40D9B1F
:1058C000AAEB03090A9BAAEB03039945A8BF9946D3
:1058D000B9F1000F33DC4FF0000829EAE97904F14F
:1058E0001A0B0D9BAAEB0303A3EB090343457FF7B8
:1058F0007AAF01235A4631462846B84701303FF473
:10590000ACAE08F10108ECE7424631462846B847FC
:105910000130C2D1A1E60123314628460A92B84798
:1059200001303FF49AAE0A9A0BF1010BBBE7314606
:10593000DDE908232846B8470130C0D18DE60A9A30
:105940004B46314628464244B8470130C3D184E62D
:10595000DDF838A0BAF1010F01DCDB0736D50123F1
:10596000424631462846B84701303FF476AEDDE97D
:10597000082331462846B84701303FF46EAED4E9DB
:105980001201002200230AF1FF3AFBF70DF8C0B91B
:10599000534608F1010231462846B84701300CD180
:1059A0005BE601235A4631462846B84701303FF4AA
:1059B00054AE08F10108D045F3DB4B4604F1500228
:1059C000E0E64FF0000804F11A0BF4E70123424629
:1059D000E1E701234A4631462846B84701303FF403
:1059E0003CAE08F10108E3680F995B1A4345F0DC0F
:1059F000FDE64FF0000804F11909F4E72DE9F0473E
:105A0000164698468A680B6907469342B8BF134604
:105A1000336091F843200C46DDF820900AB1013341
:105A200033602368990642BF3368023333602568C8
:105A300015F0060506D104F1190AE36832689B1ACD
:105A4000AB422BDC94F843302268003B18BF0123A3
:105A5000920630D44146384604F14302C84701302B
:105A600023D02368226903F00603042B14BF00250A
:105A700033684FF0000608BFE56804F11A0408BF58
:105A8000ED1A54F8123C08BF25EAE5759342C4BFED
:105A90009B1AED18B5421AD1002008E001235246A6
:105AA00041463846C847013003D14FF0FF30BDE8CA
:105AB000F0870135C1E73020E11881F843005A1C16
:105AC00094F845102244023382F84310C2E70123C0
:105AD000224641463846C8470130E6D00136D9E76C
