:020000040800F2
:100000000050002051280008B1240008B92400083D
:10001000C1240008C9240008D12400080000000001
:10002000000000000000000000000000D9240008CB
:10003000E524000800000000F1240008FD24000869
:10004000992800089928000899280008992800088C
:10005000992800089928000899280008992800087C
:10006000992800089928000899280008992800086C
:10007000992800089928000899280008992800085C
:10008000992800089928000899280008992800084C
:10009000992800089928000899280008992800083C
:1000A000992800089928000899280008992800082C
:1000B000992800089928000899280008992800081C
:1000C000992800089928000899280008992800080C
:1000D00099280008992800089928000899280008FC
:1000E00099280008992800089928000800000000B5
:1000F0000000000000000000000000000000000000
:0C01000000000000000000005FF808F1A3
:1001100010B5054C237833B9044B13B10448AFF341
:1001200000800123237010BDD401002000000000D6
:10013000448B000808B5034B1BB103490348AFF3D8
:10014000008008BD00000000D8010020448B00089A
:10015000034613F8012B002AFBD1181A0138704707
:1001600081F0004102E000BF83F0004330B54FEA68
:1001700041044FEA430594EA050F08BF90EA020FD5
:100180001FBF54EA000C55EA020C7FEA645C7FEA68
:10019000655C00F0E2804FEA5454D4EB5555B8BF8B
:1001A0006D420CDD2C4480EA020281EA030382EAFC
:1001B000000083EA010180EA020281EA0303362D8E
:1001C00088BF30BD11F0004F4FEA01314FF4801C61
:1001D0004CEA113102D0404261EB410113F0004F73
:1001E0004FEA03334CEA133302D0524263EB43032A
:1001F00094EA050F00F0A780A4F10104D5F1200EC8
:100200000DDB02FA0EFC22FA05F2801841F1000122
:1002100003FA0EF2801843FA05F359410EE0A5F1F6
:1002200020050EF1200E012A03FA0EFC28BF4CF027
:10023000020C43FA05F3C01851EBE37101F00045DD
:1002400007D54FF0000EDCF1000C7EEB00006EEBEA
:100250000101B1F5801F1BD3B1F5001F0CD3490874
:100260005FEA30004FEA3C0C04F101044FEA4452CB
:1002700012F5800F80F09A80BCF1004F08BF5FEA52
:10028000500C50F1000041EB045141EA050130BD32
:100290005FEA4C0C404141EB0101013C28BFB1F544
:1002A000801FE9D291F0000F04BF01460020B1FA8F
:1002B00081F308BF2033A3F10B03B3F120020CDA62
:1002C0000C3208DD02F1140CC2F10C0201FA0CF040
:1002D00021FA02F10CE002F11402D8BFC2F1200CA5
:1002E00001FA02F120FA0CFCDCBF41EA0C0190405B
:1002F000E41AA2BF01EB0451294330BD6FEA0404A4
:100300001F3C1CDA0C340EDC04F11404C4F120028E
:1003100020FA04F001FA02F340EA030021FA04F3A0
:1003200045EA030130BDC4F10C04C4F1200220FAF7
:1003300002F001FA04F340EA0300294630BD21FA35
:1003400004F0294630BD94F0000F83F4801306BFFB
:1003500081F480110134013D4EE77FEA645C18BFEF
:100360007FEA655C29D094EA050F08BF90EA020F86
:1003700005D054EA000C04BF1946104630BD91EA7E
:10038000030F1EBF0021002030BD5FEA545C05D181
:100390004000494128BF41F0004130BD14F58004C0
:1003A0003CBF01F5801130BD01F0004545F0FE4134
:1003B00041F470014FF0000030BD7FEA645C1ABF69
:1003C000194610467FEA655C1CBF0B46024650EAA0
:1003D000013406BF52EA033591EA030F41F40021CC
:1003E00030BD00BF90F0000F04BF0021704730B552
:1003F0004FF4806404F132044FF000054FF0000127
:1004000050E700BF90F0000F04BF0021704730B5E7
:100410004FF4806404F1320410F0004548BF4042BC
:100420004FF000013EE700BF42004FEAE2014FEA11
:1004300031014FEA02701FBF12F07F4393F07F4FEC
:1004400081F06051704732F07F4208BF704793F0EF
:100450007F4F04BF41F40021704730B54FF4607402
:1004600001F0004521F000411CE700BF50EA010205
:1004700008BF704730B54FF000050AE050EA0102AE
:1004800008BF704730B511F0004502D5404261EB1E
:1004900041014FF4806404F132045FEA915C3FF45F
:1004A000D8AE4FF003025FEADC0C18BF03325FEAFC
:1004B000DC0C18BF033202EBDC02C2F1200300FAAD
:1004C00003FC20FA02F001FA03FE40EA0E0021FAD2
:1004D00002F11444BDE600BF70B54FF0FF0C4CF4C0
:1004E000E06C1CEA11541DBF1CEA135594EA0C0F72
:1004F00095EA0C0F00F0DEF82C4481EA030621EAAD
:100500004C5123EA4C5350EA013518BF52EA0335E7
:1005100041F4801143F4801338D0A0FB02CE4FF099
:100520000005E1FB02E506F00042E0FB03E54FF0C9
:100530000006E1FB03569CF0000F18BF4EF0010EC1
:10054000A4F1FF04B6F5007F64F5407404D25FEABD
:100550004E0E6D4146EB060642EAC62141EA555170
:100560004FEAC52040EA5E504FEACE2EB4F1FD0CB2
:1005700088BFBCF5E06F1ED8BEF1004F08BF5FEA30
:10058000500E50F1000041EB045170BD06F00046E2
:1005900046EA010140EA020081EA0301B4EB5C048F
:1005A000C2BFD4EB0C0541EA045170BD41F4801187
:1005B0004FF0000E013C00F3AB8014F1360FDEBFAC
:1005C000002001F0004170BDC4F10004203C35DA88
:1005D0000C341BDC04F11404C4F1200500FA05F30B
:1005E00020FA04F001FA05F240EA020001F00042AC
:1005F00021F0004110EBD37021FA04F642EB060122
:100600005EEA430E08BF20EAD37070BDC4F10C044B
:10061000C4F1200500FA04F320FA05F001FA04F20F
:1006200040EA020001F0004110EBD37041F10001FB
:100630005EEA430E08BF20EAD37070BDC4F1200506
:1006400000FA05F24EEA020E20FA04F301FA05F26E
:1006500043EA020321FA04F001F0004121FA04F216
:1006600020EA020000EBD3705EEA430E08BF20EAE6
:10067000D37070BD94F0000F0FD101F00046400020
:1006800041EB010111F4801F08BF013CF7D041EAA2
:10069000060195F0000F18BF704703F000465200A6
:1006A00043EB030313F4801F08BF013DF7D043EA77
:1006B0000603704794EA0C0F0CEA135518BF95EA2D
:1006C0000C0F0CD050EA410618BF52EA4306D1D1B4
:1006D00081EA030101F000414FF0000070BD50EAD3
:1006E000410606BF1046194652EA430619D094EA5D
:1006F0000C0F02D150EA013613D195EA0C0F05D147
:1007000052EA03361CBF104619460AD181EA03019A
:1007100001F0004141F0FE4141F470014FF0000052
:1007200070BD41F0FE4141F4780170BD70B54FF0ED
:10073000FF0C4CF4E06C1CEA11541DBF1CEA13556D
:1007400094EA0C0F95EA0C0F00F0A7F8A4EB05044F
:1007500081EA030E52EA03354FEA013100F0888046
:100760004FEA03334FF0805545EA131343EA12630F
:100770004FEA022245EA111545EA10654FEA0026C4
:100780000EF000419D4208BF964244F1FD0404F57D
:10079000407402D25B084FEA3202B61A65EB0305D9
:1007A0005B084FEA32024FF480104FF4002CB6EB96
:1007B000020E75EB030E22BFB61A754640EA0C0016
:1007C0005B084FEA3202B6EB020E75EB030E22BF56
:1007D000B61A754640EA5C005B084FEA3202B6EB97
:1007E000020E75EB030E22BFB61A754640EA9C0056
:1007F0005B084FEA3202B6EB020E75EB030E22BF26
:10080000B61A754640EADC0055EA060E18D04FEAE3
:10081000051545EA16754FEA06164FEAC30343EA83
:1008200052734FEAC2025FEA1C1CC0D111F4801F50
:100830000BD141EA00014FF000004FF0004CB6E749
:1008400011F4801F04BF01430020B4F1FD0C88BFE8
:10085000BCF5E06F3FF6AFAEB5EB030C04BFB6EBF3
:10086000020C5FEA500C50F1000041EB045170BDE6
:100870000EF0004E4EEA113114EB5C04C2BFD4EB13
:100880000C0541EA045170BD41F480114FF0000E97
:10089000013C90E645EA060E8DE60CEA135594EA13
:1008A0000C0F08BF95EA0C0F3FF43BAF94EA0C0F16
:1008B0000AD150EA01347FF434AF95EA0C0F7FF48B
:1008C00025AF104619462CE795EA0C0F06D152EADF
:1008D00003353FF4FDAE1046194622E750EA4106C3
:1008E00018BF52EA43067FF4C5AE50EA41047FF4D4
:1008F0000DAF52EA43057FF4EBAE12E74FF0FF3C39
:1009000006E000BF4FF0010C02E000BF4FF0010C09
:100910004DF804CD4FEA410C7FEA6C5C4FEA430C82
:1009200018BF7FEA6C5C1BD001B050EA410C0CBFD1
:1009300052EA430C91EA030F02BF90EA020F002033
:10094000704710F1000F91EA030F58BF994208BF9A
:1009500090422CBFD8176FEAE37040F00100704757
:100960004FEA410C7FEA6C5C02D150EA013C07D1AE
:100970004FEA430C7FEA6C5CD6D152EA033CD3D0F9
:100980005DF8040B704700BF8446104662468C46F3
:100990001946634600E000BF01B5FFF7B7FF002826
:1009A00048BF10F1000F01BD4DF808EDFFF7F4FF4F
:1009B0000CBF012000205DF808FB00BF4DF808EDDA
:1009C000FFF7EAFF34BF012000205DF808FB00BFFD
:1009D0004DF808EDFFF7E0FF94BF012000205DF81F
:1009E00008FB00BF4DF808EDFFF7CEFF94BF0120D4
:1009F00000205DF808FB00BF4DF808EDFFF7C4FFCD
:100A000034BF012000205DF808FB00BF4FEA410C15
:100A10007FEA6C5C02D150EA013C0AD14FEA430CF8
:100A20007FEA6C5C02D152EA033C02D14FF0000035
:100A300070474FF0010070474FEA410212F5001273
:100A400015D211D56FF47873B3EB625212D94FEA15
:100A5000C12343F0004343EA505311F0004F23FAFF
:100A600002F018BF404270474FF00000704750EA54
:100A7000013005D111F0004008BF6FF00040704711
:100A80004FF00000704700BF4A0011D212F500126B
:100A900011D20DD56FF47873B3EB62520ED44FEAD6
:100AA000C12343F0004343EA505323FA02F0704756
:100AB0004FF00000704750EA013002D14FF0FF3094
:100AC00070474FF0000070474FEA4102B2F1E04337
:100AD00024BFB3F5001CDCF1FE5C0DD901F0004C25
:100AE0004FEAC0024CEA5070B2F1004F40EB830075
:100AF00008BF20F00100704711F0804F21D113F1A1
:100B00003872BCBF01F00040704741F480114FEAD9
:100B10005252C2F11802C2F1200C10FA0CF320FA62
:100B200002F018BF40F001004FEAC1234FEAD3237F
:100B300003FA0CFC40EA0C0023FA02F34FEA4303E9
:100B4000CCE77FEA625307D150EA01331EBF4FF072
:100B5000FE4040F44000704701F0004040F0FE408D
:100B600040F40000704700BF80F0004002E000BF8A
:100B700081F0004142001FBF5FEA410392EA030F88
:100B80007FEA226C7FEA236C6AD04FEA1262D2EBD2
:100B90001363C1BFD218414048404140B8BF5B42D7
:100BA000192B88BF704710F0004F40F4000020F070
:100BB0007F4018BF404211F0004F41F4000121F086
:100BC0007F4118BF494292EA030F3FD0A2F10102D0
:100BD00041FA03FC10EB0C00C3F1200301FA03F10E
:100BE00000F0004302D5494260EB4000B0F5000F31
:100BF00013D3B0F1807F06D340084FEA310102F1F0
:100C00000102FE2A51D2B1F1004F40EBC25008BFA1
:100C100020F0010040EA03007047490040EB00006B
:100C2000013A28BFB0F5000FEDD2B0FA80FCACF16C
:100C3000080CB2EB0C0200FA0CF0AABF00EBC25099
:100C400052421843BCBFD0401843704792F0000F87
:100C500081F4000106BF80F400000132013BB5E7DA
:100C60004FEA41037FEA226C18BF7FEA236C21D050
:100C700092EA030F04D092F0000F08BF08467047B5
:100C800090EA010F1CBF0020704712F07F4F04D183
:100C9000400028BF40F00040704712F100723CBF96
:100CA00000F50000704700F0004343F0FE4040F4C0
:100CB000000070477FEA226216BF08467FEA23637E
:100CC0000146420206BF5FEA412390EA010F40F469
:100CD000800070474FF0000304E000BF10F00043B5
:100CE00048BF40425FEA000C08BF704743F096439C
:100CF00001464FF000001CE050EA010208BF7047B7
:100D00004FF000030AE000BF50EA010208BF70473D
:100D100011F0004302D5404261EB41015FEA010C52
:100D200002BF84460146002043F0B64308BFA3F14A
:100D30008053A3F50003BCFA8CF2083AA3EBC2532C
:100D400010DB01FA02FC634400FA02FCC2F120024B
:100D5000BCF1004F20FA02F243EB020008BF20F082
:100D60000100704702F1200201FA02FCC2F12002E8
:100D700050EA4C0021FA02F243EB020008BF20EADD
:100D8000DC7070474FF0FF0C1CEAD0521EBF1CEA0B
:100D9000D15392EA0C0F93EA0C0F6FD01A4480EAF9
:100DA000010C400218BF5FEA41211ED04FF00063E2
:100DB00043EA501043EA5111A0FB01310CF000400E
:100DC000B1F5000F3EBF490041EAD3715B0040EA34
:100DD000010062F17F02FD2A1DD8B3F1004F40EB04
:100DE000C25008BF20F00100704790F0000F0CF0D7
:100DF000004C08BF49024CEA502040EA51207F3A9B
:100E0000C2BFD2F1FF0340EAC250704740F4000075
:100E10004FF00003013A5DDC12F1190FDCBF00F066
:100E200000407047C2F10002410021FA02F1C2F114
:100E3000200200FA02FC5FEA310040F1000053EAB0
:100E40004C0308BF20EADC70704792F0000F00F0FE
:100E5000004C02BF400010F4000F013AF9D040EA04
:100E60000C0093F0000F01F0004C02BF490011F498
:100E7000000F013BF9D041EA0C018FE70CEAD15396
:100E800092EA0C0F18BF93EA0C0F0AD030F0004C16
:100E900018BF31F0004CD8D180EA010000F00040CA
:100EA000704790F0000F17BF90F0004F084691F088
:100EB000000F91F0004F14D092EA0C0F01D14202C2
:100EC0000FD193EA0C0F03D14B0218BF084608D18B
:100ED00080EA010000F0004040F0FE4040F40000D5
:100EE000704740F0FE4040F4400070474FF0FF0C68
:100EF0001CEAD0521EBF1CEAD15392EA0C0F93EAAF
:100F00000C0F69D0A2EB030280EA010C49024FEA00
:100F1000402037D04FF0805343EA111143EA1013B9
:100F20000CF000408B4238BF5B0042F17D024FF471
:100F3000000C8B4224BF5B1A40EA0C00B3EB510F4C
:100F400024BFA3EB510340EA5C00B3EB910F24BF35
:100F5000A3EB910340EA9C00B3EBD10F24BFA3EBBA
:100F6000D10340EADC001B0118BF5FEA1C1CE0D182
:100F7000FD2A3FF650AF8B4240EBC25008BF20F035
:100F8000010070470CF0004C4CEA50207F32C2BF89
:100F9000D2F1FF0340EAC250704740F400004FF026
:100FA0000003013A37E792F0000F00F0004C02BF57
:100FB000400010F4000F013AF9D040EA0C0093F021
:100FC000000F01F0004C02BF490011F4000F013B7B
:100FD000F9D041EA0C0195E70CEAD15392EA0C0FE3
:100FE00008D142027FF47DAF93EA0C0F7FF470AF1B
:100FF000084676E793EA0C0F04D14B023FF44CAF5E
:1010000008466EE730F0004C18BF31F0004CCAD1F2
:1010100030F000427FF45CAF31F000437FF43CAF2E
:101020005FE700BF4FF0FF3C06E000BF4FF0010C50
:1010300002E000BF4FF0010C4DF804CD4FEA400232
:101040004FEA41037FEA226C18BF7FEA236C11D07C
:1010500001B052EA530C18BF90EA010F58BFB2EB2F
:10106000030088BFC81738BF6FEAE17018BF40F0AF
:10107000010070477FEA226C02D15FEA402C05D163
:101080007FEA236CE4D15FEA412CE1D05DF8040BE8
:10109000704700BF844608466146FFE70FB5FFF77B
:1010A000C9FF002848BF10F1000F0FBD4DF808ED33
:1010B000FFF7F4FF0CBF012000205DF808FB00BF24
:1010C0004DF808EDFFF7EAFF34BF012000205DF87E
:1010D00008FB00BF4DF808EDFFF7E0FF94BF0120CB
:1010E00000205DF808FB00BF4DF808EDFFF7D2FFC8
:1010F00094BF012000205DF808FB00BF4DF808ED0B
:10110000FFF7C8FF34BF012000205DF808FB00BFD7
:1011100038B50022002304460D46FFF74FFC28B9DE
:1011200020462946BDE8384000F00AB8204605F1BF
:10113000004100F005F8404261EB410138BD00BFBD
:10114000D0B500220B4B06460F46FFF7C5F9FFF757
:101150009BFC0446FFF746F90022074BFFF7BCF95A
:1011600002460B4630463946FEF7FEFFFFF78CFC81
:101170002146D0BD0000F03D0000F04180B588B0B0
:1011800000AF07F1100300221A605A609A60DA601B
:10119000244B9B69234A43F020039361214B9B69B5
:1011A00003F02003FB60FB681E4B9B691D4A43F064
:1011B000040393611B4B9B6903F00403BB60BB6892
:1011C000184B9B69174A43F008039361154B9B69C1
:1011D00003F008037B607B6800221221124801F0B3
:1011E00062FE02233B6101237B610123BB61022379
:1011F000FB6107F1100319460B4801F0B9FC1023FD
:101200003B6101237B610023BB610223FB6107F18A
:1012100010031946044801F0ABFC00BF2037BD465F
:1012200080BD00BF001002400008014080B500AF43
:10123000124B134A1A60114B124A5A600F4B00228C
:101240009A600E4B0022DA600C4B4FF480421A6118
:101250000A4B00225A61094B00229A61074B002277
:10126000DA61064B00221A62044801F035FE03469B
:10127000002B01D000F0D3FD00BF80BDF0010020A5
:1012800000540040801A060080B588B000AF786036
:1012900007F1100300221A605A609A60DA607B68D6
:1012A0001B68154A934223D1144B9B69134A43F0A0
:1012B00008039361114B9B6903F00803FB60FB6813
:1012C000C0233B6112237B610323FB6107F1100301
:1012D00019460B4801F04CFC084BDB69074A43F404
:1012E0000013D361054BDB6903F40013BB60BB68DB
:1012F00000BF2037BD4680BD0054004000100240B2
:10130000000C014080B500AF00221021024801F01E
:10131000CAFD00BF80BD00BF0008014080B582B09B
:1013200000AF0346FB71FB79002B14BF01230023A0
:10133000DBB21A461021034801F0B5FD00BF0837A3
:10134000BD4680BD0008014080B483B000AF0346B5
:10135000FB80FB881A46520013445B00FB8007E0C9
:1013600000BF00BF00BF00BF00BF00BF00BF00BF85
:10137000FB885A1EFA80002BF2D100BF00BF0C3749
:10138000BD4680BC7047000080B582B000AF034608
:10139000FB71002202210E4801F085FD0120FFF7BC
:1013A000D3FFFB79002B04D001220221084801F071
:1013B0007AFD3C20FFF7C8FF01220221044801F01A
:1013C00072FD0120FFF7C0FF00BF0837BD4680BD9A
:1013D0000008014080B582B000AF0023FB710022FD
:1013E00002210F4801F05FFD0120FFF7ADFF012250
:1013F00002210B4801F057FD0A20FFF7A5FF02214B
:10140000074801F039FD0346002B01D00123FB7191
:101410003220FFF799FFFB7918460837BD4680BD9B
:101420000008014080B584B000AF0346FB71002383
:10143000FB730CE0FB7903F00103DBB21846FFF706
:10144000A3FFFB795B08FB71FB7B0133FB73FB7B29
:10145000072BEFD900BF00BF1037BD4680BD80B558
:1014600082B000AF0023FB710023BB710EE0FB795B
:101470005B08FB71FFF7AEFF0346002B03D0FB793F
:1014800063F07F03FB71BB790133BB71BB79072B21
:10149000EDD9FB7918460837BD4680BD80B586B0CA
:1014A00000AF3B1D00221A605A609A60DA60022386
:1014B0007B600123BB600023FB6003233B613B1D7A
:1014C00019461E4801F054FB002202211B4801F07E
:1014D000EAFC4FF4F070FFF737FF012202211748B2
:1014E00001F0E1FC0023BB600023FB603B1D1946BB
:1014F000124801F03DFB3C20FFF726FF02210F4878
:1015000001F0BAFC0346FB754FF4D270FFF71CFFE5
:101510000123BB600023FB6003233B613B1D194695
:10152000064801F025FB01220221044801F0BBFC22
:10153000FB7D18461837BD4680BD00BF000801403E
:1015400080B485B000AF78600B46FB700023FB735E
:1015500022E07B685A1C7A601B78BB7308237B737C
:1015600017E0FA7BBB7B5340DBB203F001033B7314
:10157000FB7B5B08FB733B7B002B04D0FB7B83F086
:101580007303DB43FB73BB7B5B08BB737B7B013B60
:101590007B737B7B002BE4D1FB785A1EFA70002B07
:1015A000D7D1FB7B18461437BD4680BC704700007E
:1015B00080B584B000AF78600123FB730023BB7358
:1015C00000237B730123FB7200233B73614B1B7869
:1015D000002B0AD0604B00221A705E4B00221A705A
:1015E0005E4B00221A700023AFE0FFF757FF03465F
:1015F000002B0AD0584B00221A70584B00221A7048
:10160000544B00221A7000239FE0F020FFF70AFFDE
:10161000FFF7E0FE03467B72FFF7DCFE03463B72FA
:101620007B7A012B02D13B7A012B61D07A7A3B7A0B
:101630009A4202D07B7ABB7226E0474B1B78FA7B3A
:101640009A420DD27B7B7A6813441A78FB7A134056
:10165000DBB2002B14BF01230023DBB2BB7208E016
:101660003D4B1B78FA7B9A420CBF01230023DBB26F
:10167000BB72BB7A002B07D1FB7BBB73BB7B082BF8
:1016800002D8364ABB7B1370BB7A012B0BD17B7B14
:101690007A68134419787B7B7A681344FA7A0A4390
:1016A000D2B21A700FE07B7B7A6813441B785AB26F
:1016B00097F90B30DB435BB2134059B27B7B7A68FE
:1016C0001344CAB21A70BB7A1846FFF75DFEFB7B63
:1016D0000133FB73FB7A5B00FB72FB7A002B04D1B6
:1016E0007B7B01337B730123FB727B7B072B8FD9C1
:1016F000FB7B402B0BD9184ABB7B1370164B1B7816
:10170000002B02D1134B01221A7001233B733B7B48
:10171000002B0ED07B681B78002B0AD0072178683D
:10172000FFF70EFF03461A467B6807331B789A4281
:101730000AD0094B00221A70064B00221A70074B80
:1017400000221A7000233B733B7B18461037BD46BE
:1017500080BD00BF6F0200206D0200206E020020DD
:10176000F0B5A7B008AF574B00221A70564B0022B5
:101770001A70564B00221A70554B00221A7020E046
:1017800097F86C30282B1CD107F16C030721184601
:10179000FFF7D6FE03461A4697F873309A4210D1E7
:1017A000484B1B78DB004B4A13441A4607F16C0385
:1017B00003CB10605160434B1B780133DAB2414BCD
:1017C0001A7007F16C031846FFF7F2FE0346002B70
:1017D00003D03C4B1B78042BD2D93A4B1B781A46CA
:1017E00007F108033C49184603F06CFD07F10803B4
:1017F0001846FEF7ADFC03469AB207F108016423D0
:10180000364802F065FC00237B6750E0314A7B6F6D
:10181000DB001344DB799C462E4A7B6FDB001344CC
:101820009B7919462B4A7B6FDB0013445B791C467E
:10183000284A7B6FDB0013441B791D46254A7B6FCA
:10184000DB001344DB781E46224A7B6FDB00134427
:101850009B787B601F4A7B6FDB0013445B783B60A7
:101860001C4A7B6F12F8333007F1080006933A6880
:1018700005927B6804930396029501940091634658
:101880007A6F174903F01EFD07F108031846FEF7AB
:101890005FFC03469AB207F10801C8230F4802F023
:1018A00017FC0A2001F05CF87B6F01337B67054B66
:1018B0001B781A467B6F9342A8DB00BF00BF7C37C2
:1018C000BD46F0BD6C0200206D0200206F020020BA
:1018D0006E02002044020020608B0008C406002035
:1018E0007C8B000880B584B000AF78605520FFF78E
:1018F00099FD0023FB7309E0FB7B7A6813441B7896
:101900001846FFF78FFDFB7B0133FB73FB7B072B37
:10191000F2D900BF00BF1037BD4680BD80B500AF13
:10192000CC20FFF77FFD00BF80BD000080B584B0F4
:1019300000AF7860234BFB60FFF7B0FD0346002B40
:1019400001D0FB6839E07868FFF7CCFFBE20FFF7D5
:1019500069FDFFF784FD0346FB72FFF780FD034638
:10196000BB72BB7A1BB21B021AB2FB7A1BB21343C7
:101970001BB23B81B7F90830002B11DA3B895B427F
:101980003B813B891846FFF7A5F9034683F00043E6
:101990004FF083411846FFF7A9FA0346FB600BE0BE
:1019A0003B891846FFF796F903464FF083411846E6
:1019B000FFF79CFA0346FB60FB6818461037BD46EC
:1019C00080BD00BF00C079C480B500AFFFF766FDE1
:1019D0000346002B01D0012305E0FFF79FFF4420C1
:1019E000FFF720FD0023184680BD0000F0B5DFB0F2
:1019F00006AF00F053FF00F0CDF9FFF7BFFB00F09A
:101A00004BFE00F073FEFFF711FCFFF77BFC00F0CC
:101A100007FC642000F0A4FF0823CA4A002100202C
:101A200000F0C8FB0823C84A1021002000F0C2FBC8
:101A300000F018FA4FF47A7000F092FF64231B2232
:101A4000C249C34802F044FBFFF78AFEC14B1B7832
:101A5000184600F0B1FC4FF4FA6000F081FFBD4B76
:101A60001B78002B07D164231B22BB49B84802F026
:101A70002FFB00BFFDE7FFF7A7FF0346002B40F059
:101A8000488140F2EE2000F06BFF002387F85F31C1
:101A9000A3E097F85F31DB00B04A13441846FFF724
:101AA00045FFC7F8580197F85F31AD49D7F858217D
:101AB00041F8232097F85F31A84ADB001344DB7913
:101AC0009C4697F85F31A54ADB0013449B799E46FC
:101AD00097F85F31A14ADB0013445B79194697F808
:101AE0005F319E4ADB0013441B791C4697F85F3137
:101AF0009A4ADB001344DB781D4697F85F31974A1A
:101B0000DB0013449B781E4697F85F31934ADB0055
:101B100013445B787B6097F85F31904A12F833305A
:101B200007F1400005937B680493039602950194A6
:101B30000091734662468B4903F0C4FB8A49D7F88B
:101B40005801FFF7DBFA0346002B1ED097F85F41E0
:101B5000D7F85801FEF768FC02460B4607F1400132
:101B600007F1F400CDE900230B4622467F4903F03C
:101B7000A9FBD7F85801FEF757FC02460B4607F1C0
:101B800090007B4903F09EFB12E097F85F41D7F885
:101B90005801FEF749FC02460B4607F1400107F1E8
:101BA000F400CDE900230B462246724903F08AFB7C
:101BB00007F1F4031846FEF7CBFA03469AB207F191
:101BC000F401C823624802F083FA322000F0C8FE14
:101BD00097F85F31013387F85F315E4B1B7897F8D8
:101BE0005F219A42FFF455AF002387F85E3100234E
:101BF00087F85D311DE097F85D31594A52F823307E
:101C00005D491846FFF77AFA0346002B0CD00120F5
:101C1000FFF784FB07F15C035849184603F052FBB9
:101C2000012387F85E310AE097F85D31013387F8C8
:101C30005D31484B1B7897F85D219A42DBD397F8CA
:101C40005E31002B08D10020FFF768FB07F15C0331
:101C50004B49184603F036FB414B18683D4B1B7847
:101C6000012B02D93E4B596800E0464997F85E21A6
:101C7000414B00F0FFFA002387F89030002387F8EB
:101C80005C311BE097F85C31354A52F82330184636
:101C9000FEF7CAFB02460B4607F10C00344903F07D
:101CA00011FB07F10C0207F190031146184603F0EF
:101CB00076FB97F85C31013387F85C31254B1B7854
:101CC00097F85C219A42DDD307F15C0207F190039B
:101CD0001146184603F063FB07F190031846FEF720
:101CE00037FA03461A4607F190031344264A11882F
:101CF000927819809A7007F190031846FEF728FA37
:101D000003469AB207F19001C823204802F0E0F997
:101D100012E007F1F4031E49184603F0D3FA07F165
:101D2000F4031846FEF714FA03469AB207F1F401D9
:101D30006423074802F0CCF94FF4FA6000F010FE7B
:101D400099E600BFB08B0008C48B0008D88B000850
:101D5000C40600206C020020F48B0008440200201E
:101D600070020020108C0008000061C4388C00084C
:101D7000548C00085C8C00080000F041888C00083E
:101D80008C8C000800C079C4908C00087C06002070
:101D9000948C000880B590B000AF07F1180328229A
:101DA0000021184603F0F3FA3B1D00221A605A6026
:101DB0009A60DA601A610123BB614FF48033FB61E2
:101DC00000233B620123BB6202237B634FF4803319
:101DD000BB634FF4E013FB6307F11803184601F0EF
:101DE00017FD0346002B01D000F019F80F237B608C
:101DF0000223BB600023FB604FF480633B61002340
:101E00007B613B1D0221184601F084FF0346002B35
:101E100001D000F004F800BF4037BD4680BD80B45B
:101E200000AF72B600BF00BFFDE7000080B586B00E
:101E300002AF03460A46FB711346BB71BB793B7385
:101E4000FB797B7307F10C02642300930223782152
:101E5000034801F085F900BF1037BD4680BD00BFC3
:101E6000F001002080B5A4B002AF002387F88730CE
:101E70003BE097F88730503BDBB200211846FFF774
:101E8000D5FF00210020FFF7D1FF00211020FFF730
:101E9000CDFF40233B71002387F8863014E097F88C
:101EA000861097F8872097F8863001331348C900C9
:101EB00001440A44127888333B4403F8842C97F891
:101EC0008630013387F8863097F98630002BE6DAC2
:101ED0003A1DC823009381237821094801F040F975
:101EE00097F88730013387F8873097F88730072BCA
:101EF000BFD900BF00BF8837BD4680BD7802002033
:101F0000F001002080B582B000AF0023FB7114E027
:101F10000023BB710AE0BA79FB790C49D2000A446C
:101F2000134400221A70BB790133BB7197F9063054
:101F3000002BF0DAFB790133FB71FB79072BE7D932
:101F4000FFF790FF00BF0837BD4680BD7802002034
:101F500080B485B000AF0346FB710B46BB711346DE
:101F60007B710023FB7397F90730002B3CDBBB79B7
:101F70003F2B39D8BB79DB08BB73BB7903F0070370
:101F80007B737B7B012202FA03F3FB737B79002BCB
:101F900012D0FA79BB7B1749D2000A44134418784F
:101FA000FA79BB7BF97B0143C8B21249D2000A44DB
:101FB000134402461A7018E0FA79BB7B0D49D2002F
:101FC0000A4413441B785AB297F90F30DB435BB2D3
:101FD000134059B2FA79BB7BC8B20649D2000A4411
:101FE000134402461A7000E000BF1437BD4680BC9F
:101FF000704700BF7802002090B585B000AF04465E
:10200000084611461A462346FB710346BB710B4630
:102010007B7113463B717B79203B7B7397F90730CB
:10202000002B04DA0023FB71BB790233BB713B79CF
:10203000102B77D10023FB7332E00023BB7329E020
:102040007B7B1A01FB7B1344584AD35C1946BB7B4C
:10205000802242FA03F30B40002B0CD0FA79BB7BB1
:102060001344D8B2BA79FB7B1344DBB20122194680
:10207000FFF76EFF0BE0FA79BB7B1344D8B2BA7955
:10208000FB7B1344DBB200221946FFF761FFBB7BE9
:102090000133BB73BB7B072BD2D9FB7B0133FB73B3
:1020A000FB7B072BC9D90023FB7337E00023BB73ED
:1020B0002EE07B7B1A01FB7B134408333B4AD35C45
:1020C0001946BB7B802242FA03F30B40002B0ED053
:1020D000FA79BB7B1344D8B2BA79FB7B1344DBB2E9
:1020E0000833DBB201221946FFF732FF0DE0FA791F
:1020F000BB7B1344D8B2BA79FB7B1344DBB2083301
:10210000DBB200221946FFF723FFBB7B0133BB7311
:10211000BB7B072BCDD9FB7B0133FB73FB7B072BF1
:10212000C4D93FE03B79082B3CD10023FB7336E058
:102130000023BB732DE07A7BF97B1D4813465B00BF
:1021400013445B0003440B441B781A46BB7B42FAE2
:1021500003F303F00103002B0CD0FA79FB7B13444B
:10216000D8B2BA79BB7B1344DBB201221946FFF720
:10217000EFFE0BE0FA79FB7B1344D8B2BA79BB7B54
:102180001344DBB200221946FFF7E2FEBB7B0133AA
:10219000BB73BB7B072BCED9FB7B0133FB73FB7B74
:1021A000052BC5D900BF1437BD4690BDBC8F0008B4
:1021B000948D000880B582B000AF3A601A4603469D
:1021C000FB710B46BB7113467B7120E03B681A78AC
:1021D0007B79B979F879FFF70FFF7B79082B01D16B
:1021E000062200E00822FB791344FB71FB797A2B6D
:1021F0000AD90023FB717B79082B01D1092200E069
:102200001022BB791344BB713B6801333B603B68D0
:102210001B78002BDAD100BF00BF0837BD4680BD58
:10222000B0B588B000AF124B3C461D460FCD0FC471
:1022300095E8070084E80700642000F091FB002384
:10224000FB770BE0FB7F20333B4413F8203C00215D
:102250001846FFF7EBFDFB7F0133FB77FB7F1B2B62
:10226000F0D9FFF74FFE00BF2037BD46B0BD00BF1D
:10227000B48C000880B58AB000AFF860B9603B60EC
:102280001346FB71FFF73EFE0823414A0021002060
:10229000FFF790FF08233F4A10210020FFF78AFF35
:1022A0003D49F868FEF72AFF0346002B11D0F86875
:1022B000FEF7BAF802460B4607F11400374903F05F
:1022C00001F807F11402082310213820FFF772FFEC
:1022D00005E00823324A10213820FFF76BFF08235E
:1022E000304A1A210020FFF765FF2B49B868FEF736
:1022F00005FF0346002B11D0B868FEF795F802469B
:102300000B4607F11400254902F0DCFF07F1140227
:1023100008231A213820FFF74DFF05E00823204A43
:102320001A213820FFF746FF08231F4A28210020E2
:10233000FFF740FFFB79002B06D008231B4A28211A
:102340003820FFF737FF05E00823194A28213820F5
:10235000FFF730FF0823174A32210020FFF72AFF3A
:102360003868FEF761F802460B4607F114000B4986
:1023700002F0A8FF07F11402082332213820FFF7EA
:1023800019FFFFF76FFD00BF2837BD4680BD00BFB6
:10239000D08C0008E48C0008000061C4F08C0008B8
:1023A000F88C0008008D00080C8D0008148D0008C2
:1023B000188D00081C8D000880B588B000AF03465A
:1023C000FB71FFF79FFD08231A4A00210020FFF749
:1023D000F1FEFA7907F10C031749184602F072FF73
:1023E00007F10C02082310210020FFF7E3FEFB7920
:1023F000002B0CD10823114A1E210020FFF7DAFE22
:1024000008230F4A28210020FFF7D4FE0BE0082301
:102410000C4A1E210020FFF7CDFE08230A4A28217E
:102420000020FFF7C7FEFFF71DFD00BF2037BD46A8
:1024300080BD00BF288D0008388D00084C8D000835
:10244000608D0008748D0008848D000880B485B00C
:1024500000AF154B9B69144A43F001039361124B83
:102460009B6903F00103BB60BB680F4BDB690E4A3D
:1024700043F08053D3610C4BDB6903F080537B60E6
:102480007B680A4B5B68FB60FB6823F0E063FB60E2
:10249000FB6843F08063FB60044AFB68536000BF45
:1024A0001437BD4680BC7047001002400000014058
:1024B00080B400AF00BFFDE780B400AF00BFFDE710
:1024C00080B400AF00BFFDE780B400AF00BFFDE700
:1024D00080B400AF00BFFDE780B400AF00BFBD46D1
:1024E00080BC704780B400AF00BFBD4680BC704761
:1024F00080B400AF00BFBD4680BC704780B500AF60
:1025000000F012FA00BF80BD80B400AF012318466E
:10251000BD4680BC704780B582B000AF786039603E
:1025200002F096FF034616221A604FF0FF3318465A
:102530000837BD4680BD80B582B000AF78604FF0EF
:10254000FF317868FFF7E7FF00BFFDE780B586B091
:1025500000AFF860B9607A6000237B610AE0AFF3F6
:1025600000800146BB685A1CBA60CAB21A707B6907
:1025700001337B617A697B689A42F0DB7B6818469D
:102580001837BD4680BD80B586B000AFF860B96031
:102590007A6000237B6109E0BB685A1CBA601B7833
:1025A0001846AFF300807B6901337B617A697B68F1
:1025B0009A42F1DB7B6818461837BD4680BD80B46F
:1025C00083B000AF78604FF0FF3318460C37BD463C
:1025D00080BC704780B483B000AF786039603B68DE
:1025E0004FF400525A60002318460C37BD4680BC99
:1025F000704780B483B000AF7860012318460C3771
:10260000BD4680BC704780B485B000AFF860B9604B
:102610007A60002318461437BD4680BC704700001E
:1026200080B586B000AF7860144A154BD31A7B6131
:102630007B693B61134B1B68002B02D1114B124A83
:102640001A60104B1A687B6813443A699A4207D2A1
:1026500002F0FEFE03460C221A604FF0FF3309E041
:10266000084B1B68FB60074B1A687B681344054ADC
:102670001360FB6818461837BD4680BD0050002027
:1026800000040000780600206008002080B400AF3D
:1026900000BFBD4680BC704780B500AF114B124AE9
:1026A0001A60104B4FF4E1325A600E4B00229A60D0
:1026B0000C4B0022DA600B4B00221A61094B0C22F2
:1026C0005A61084B00229A61064B0022DA610548E4
:1026D00001F0AEFC0346002B01D0FFF7A0FB00BFCA
:1026E00080BD00BF7C0600200038014080B500AFEF
:1026F000114B124A1A60104B4FF4E1325A600E4BE4
:1027000000229A600C4B0022DA600B4B00221A6107
:10271000094B0C225A61084B00229A61064B002299
:10272000DA61054801F084FC0346002B01D0FFF775
:1027300076FB00BF80BD00BFC406002000480040FB
:1027400080B58AB000AF786007F1180300221A60E4
:102750005A609A60DA607B681B68384A934232D1CB
:10276000374B9B69364A43F480439361344B9B69F2
:1027700003F480437B617B69314B9B69304A43F0B2
:10278000040393612E4B9B6903F004033B613B6997
:102790004FF40073BB610223FB6103237B6207F1EB
:1027A00018031946274800F0E3F94FF48063BB6132
:1027B0000023FB6100233B6207F1180319462148FF
:1027C00000F0D6F936E07B681B681F4A934231D18E
:1027D0001B4BDB691A4A43F48023D361184BDB6936
:1027E00003F48023FB60FB68154B9B69144A43F09C
:1027F00008039361124B9B6903F00803BB60BB683D
:102800004FF48063BB610223FB6103237B6207F10A
:10281000180319460D4800F0ABF94FF40063BB6193
:102820000023FB6100233B6207F1180319460748A8
:1028300000F09EF900BF2837BD4680BD003801403A
:10284000001002400008014000480040000C014018
:10285000FFF71CFF0B480C490C4A002302E0D45838
:10286000C4500433C4188C42F9D3094A094C0023DC
:1028700001E013600432A242FBD302F0EFFDFFF748
:10288000B5F8704700000020D40100200C9A000821
:10289000D40100205C080020FEE7000080B500AFF6
:1028A000084B1B68074A43F010031360032000F035
:1028B0002BF90F2000F008F8FFF7C8FD0023184699
:1028C00080BD00BF0020024080B582B000AF7860BC
:1028D000124B1A68124B1B7819464FF47A73B3FBEC
:1028E000F1F3B2FBF3F3184600F035F90346002B81
:1028F00001D001230EE07B680F2B0AD800227968F3
:102900004FF0FF3000F00BF9064A7B68136000239C
:1029100000E0012318460837BD4680BD00000020B6
:10292000080000200400002080B400AF054B1B7895
:102930001A46054B1B681344034A136000BFBD468B
:1029400080BC7047080000200C07002080B400AF56
:10295000024B1B681846BD4680BC70470C07002020
:1029600080B584B000AF7860FFF7F0FFB8607B6897
:10297000FB60FB68B3F1FF3F05D00A4B1B781A469A
:10298000FB681344FB6000BFFFF7E0FF0246BB6833
:10299000D31AFA689A42F7D800BF00BF1037BD4675
:1029A00080BD00BF0800002080B485B000AF786013
:1029B0007B6803F00703FB600C4BDB68BB60BA6805
:1029C0004FF6FF031340BB60FB681A02BB6813435A
:1029D00043F0BF6343F40033BB60044ABB68D36079
:1029E00000BF1437BD4680BC704700BF00ED00E05B
:1029F00080B400AF044BDB681B0A03F007031846E2
:102A0000BD4680BC704700BF00ED00E080B483B0DD
:102A100000AF03463960FB7197F90730002B0ADBE2
:102A20003B68DAB20C4997F907301201D2B20B4475
:102A300083F800230AE03B68DAB20849FB7903F027
:102A40000F03043B1201D2B20B441A7600BF0C37BD
:102A5000BD4680BC704700BF00E100E000ED00E033
:102A600080B489B000AFF860B9607A60FB6803F0A9
:102A70000703FB61FB69C3F10703042B28BF042391
:102A8000BB61FB690433062B02D9FB69033B00E001
:102A900000237B614FF0FF32BB6902FA03F3DA4394
:102AA000BB681A407B699A404FF0FF317B6901FA9D
:102AB00003F3D9437B680B40134318462437BD46C4
:102AC00080BC704780B582B000AF78607B68013B06
:102AD000B3F1807F01D301230FE00A4A7B68013BF9
:102AE00053600F214FF0FF30FFF790FF054B00229E
:102AF0009A60044B07221A60002318460837BD4627
:102B000080BD00BF10E000E080B582B000AF78600B
:102B10007868FFF749FF00BF0837BD4680BD80B524
:102B200086B000AF0346B9607A60FB7300237B6117
:102B3000FFF75EFF78617A68B9687869FFF790FF00
:102B4000024697F90F3011461846FFF75FFF00BFA6
:102B50001837BD4680BD80B582B000AF7860786818
:102B6000FFF7B0FF034618460837BD4680BD00009A
:102B700080B48BB000AF7860396000237B620023A3
:102B80003B6269E101227B6A02FA03F3FB613B6865
:102B90001B68FA691340BB61BA69FB699A4240F04D
:102BA00058813B685B689A4A93425ED0984A934248
:102BB00075D8984A934258D0964A93426FD8964A0D
:102BC000934252D0944A934269D8944A93424CD04B
:102BD000924A934263D8924A934246D0904A934293
:102BE0005DD8122B2AD8122B59D801A252F823F003
:102BF0006B2C0008452C0008572C0008992C000865
:102C00009F2C00089F2C00089F2C00089F2C000878
:102C10009F2C00089F2C00089F2C00089F2C000868
:102C20009F2C00089F2C00089F2C00089F2C000858
:102C30009F2C00084D2C0008612C0008794A934213
:102C400013D02CE03B68DB683B6229E03B68DB6823
:102C500004333B6224E03B68DB6808333B621FE0DF
:102C60003B68DB680C333B621AE03B689B68002BD7
:102C700002D104233B6213E03B689B68012B05D122
:102C800008233B627B68FA691A6109E008233B620A
:102C90007B68FA695A6103E000233B6200E000BFF1
:102CA000BB69FF2B01D87B6801E07B6804337B6143
:102CB000BB69FF2B02D87B6A9B0002E07B6A083B62
:102CC0009B003B617B691A680F213B6901FA03F3A2
:102CD000DB431A40396A3B6901FA03F31A437B6903
:102CE0001A603B685B6803F08053002B00F0B180F2
:102CF0004D4B9B694C4A43F0010393614A4B9B69DE
:102D000003F00103BB60BB68484A7B6A9B0802333F
:102D100052F82330FB607B6A03F003039B000F2211
:102D200002FA03F3DB43FA681340FB607B68404A16
:102D3000934213D07B683F4A93420DD07B683E4A52
:102D4000934207D07B683D4A934201D1032306E0BA
:102D5000042304E0022302E0012300E000237A6A56
:102D600002F0030292009340FA681343FB602F497C
:102D70007B6A9B080233FA6841F823203B685B6852
:102D800003F48013002B06D02D4B9A682C49BB69A5
:102D900013438B6006E02A4B9A68BB69DB432849E2
:102DA00013408B603B685B6803F40013002B06D074
:102DB000234BDA682249BB691343CB6006E0204B02
:102DC000DA68BB69DB431E491340CB603B685B6834
:102DD00003F40033002B06D0194B5A681849BB691D
:102DE00013434B6006E0164B5A68BB69DB4314493A
:102DF00013404B603B685B6803F48033002B21D0A9
:102E00000F4B1A680E49BB6913430B6021E000BFEA
:102E100000003210000031100000221000002110CC
:102E200000001210000011100010024000000140CC
:102E300000080140000C0140001001400014014056
:102E4000000401400B4B1A68BB69DB43094913407E
:102E50000B607B6A01337B623B681A687B6A22FAEB
:102E600003F3002B7FF48EAE00BF00BF2C37BD46AE
:102E700080BC70470004014080B485B000AF78602A
:102E80000B467B807B689A687B881340002B02D0BE
:102E90000123FB7301E00023FB73FB7B184614370F
:102EA000BD4680BC704780B483B000AF78600B46ED
:102EB0007B8013467B707B78002B03D07A887B68FD
:102EC0001A6103E07B881A047B681A6100BF0C3723
:102ED000BD4680BC7047000080B584B000AF78600C
:102EE0007B68002B01D101232BE17B6893F83D30F7
:102EF000DBB2002B06D17B68002283F83C20786887
:102F0000FEF7C2F97B68242283F83D207B681B68AA
:102F10001A687B681B6822F001021A607B681B68D4
:102F20001A687B681B6842F400421A607B681B6861
:102F30001A687B681B6822F400421A6001F032F8BC
:102F4000F8607B685B68814A934207D8FB68804AD7
:102F5000934294BF01230023DBB206E0FB687D4A65
:102F6000934294BF01230023DBB2002B01D0012345
:102F7000E7E0FB68784AA2FB03239B0CBB607B68FD
:102F80001B685B6823F03F017B681B68BA680A43D3
:102F90005A607B681B681B6A23F03F017B685B6893
:102FA0006A4A934202D8BB68013309E0BB684FF418
:102FB000967202FB03F3694AA2FB03239B090133C8
:102FC0007A6812680B4313627B681B68DB6923F421
:102FD0004F4222F0FF027B685B685C498B4219D844
:102FE000FB68591E7B685B685B00B1FBF3F3591CFF
:102FF00040F6FC730B40002B0AD0FB68591E7B681F
:103000005B685B00B1FBF3F30133C3F30B0351E0E7
:1030100004234FE07B689B68002B11D1FB68581E8E
:103020007B6859680B465B000B44B0FBF3F301333C
:10303000C3F30B03002B0CBF01230023DBB212E010
:10304000FB68581E7B6859680B469B000B4499002F
:103050000B44B0FBF3F30133C3F30B03002B0CBFA2
:1030600001230023DBB2002B01D0012322E07B6887
:103070009B68002B0ED1FB68581E7B6859680B4675
:103080005B000B44B0FBF3F30133C3F30B0343F4D6
:1030900000430FE0FB68581E7B6859680B469B0095
:1030A0000B4499000B44B0FBF3F30133C3F30B0360
:1030B00043F44043796809681343CB617B681B681C
:1030C0001B6823F0C0017B68DA697B681B6A1A43BE
:1030D0007B681B680A431A607B681B689B6823F443
:1030E000034323F0FF037A6811697A68D2681143B9
:1030F0007A6812680B4393607B681B68DB6823F077
:10310000FF017B685A697B689B691A437B681B686F
:103110000A43DA607B681B681A687B681B6842F0A8
:1031200001021A607B6800221A647B68202283F8FF
:103130003D207B6800221A637B68002283F83E20D2
:10314000002318461037BD4680BD00BFA086010091
:103150007F841E00FF083D0083DE1B43D34D6210B9
:1031600080B588B002AFF8607A601A460B467B8162
:1031700013463B81FFF7EAFB7861FB6893F83D302B
:10318000DBB2202B40F0E0807B6900931923012201
:103190007049F86800F064F90346002B01D002235F
:1031A000D3E0FB6893F83C30012B01D10223CCE043
:1031B000FB68012283F83C20FB681B681B6803F056
:1031C0000103012B07D0FB681B681A68FB681B68AA
:1031D00042F001021A60FB681B681A68FB681B68F2
:1031E00022F400621A60FB68212283F83D20FB680C
:1031F000102283F83E20FB6800221A64FB687A687C
:103200005A62FB683A895A85FB685B8D9AB2FB6803
:103210001A85FB68504ADA6279897B693A6AF868EC
:1032200000F09CF80346002B01D001238DE0002321
:103230003B61FB681B685B693B61FB681B689B69C2
:103240003B613B6966E07A69396AF86800F022FA06
:103250000346002B0DD0FB681B6C042B07D1FB68C9
:103260001B681A68FB681B6842F400721A6001232D
:103270006BE0FB685B6A1A78FB681B681A61FB6885
:103280005B6A5A1CFB685A62FB685B8D9BB2013B10
:103290009AB2FB685A85FB681B8D013B9AB2FB68AA
:1032A0001A85FB681B685B6903F00403042B1BD1C0
:1032B000FB681B8D002B17D0FB685B6A1A78FB68D4
:1032C0001B681A61FB685B6A5A1CFB685A62FB68E0
:1032D0005B8D9BB2013B9AB2FB685A85FB681B8DE4
:1032E000013B9AB2FB681A857A69396AF86800F07E
:1032F00019FA0346002B0DD0FB681B6C042B07D179
:10330000FB681B681A68FB681B6842F400721A604D
:1033100001231AE0FB681B8D002B94D1FB681B680E
:103320001A68FB681B6842F400721A60FB6820226E
:1033300083F83D20FB68002283F83E20FB680022D2
:1033400083F83C20002300E0022318461837BD46CE
:1033500080BD00BF020010000000FFFF80B588B0F4
:1033600002AFF8607A603B600B467B81FB68DB6AEA
:103370007B617B69082B06D07B69012B03D07B69BD
:1033800013F5803F08D1FB681B681A68FB681B684F
:1033900042F480721A600BE0FB681B6B122B07D1A2
:1033A000FB681B681A68FB681B6842F480721A602D
:1033B0003B6800937B6800224FF00111F86800F031
:1033C0004FF80346002B0DD0FB681B681B6803F405
:1033D0008073B3F5807F03D1FB684FF400721A64E9
:1033E000032335E0FB681B69B3F5804F08D17B8967
:1033F000DBB21A46FB681B6802F0FE021A611BE092
:103400007B89DB11DBB203F00603DBB263F00F0351
:10341000DAB2FB681B681A613B687A680E49F86883
:1034200000F098F80346002B01D0012310E07B89BF
:10343000DAB2FB681B681A613B687A680749F8686A
:1034400000F088F80346002B01D0012300E00023A0
:1034500018461837BD4680BD080001000200010073
:1034600080B584B000AFF860B9603B601346FB7173
:1034700048E03B68B3F1FF3F44D0FFF767FA0246EC
:10348000BB69D31A3A689A4202D33B68002B39D100
:10349000BB681B0CDBB2012B0DD1FB681B685B69A1
:1034A000DA43BB6813409BB2002B0CBF01230023FF
:1034B000DBB21A460CE0FB681B689B69DA43BB6809
:1034C00013409BB2002B0CBF01230023DBB21A4632
:1034D000FB799A4216D1FB6800221A63FB6820220E
:1034E00083F83D20FB68002283F83E20FB681B6CBC
:1034F00043F02002FB681A64FB68002283F83C203A
:10350000012323E0BB681B0CDBB2012B0DD1FB6850
:103510001B685B69DA43BB6813409BB2002B0CBF8E
:1035200001230023DBB21A460CE0FB681B689B6991
:10353000DA43BB6813409BB2002B0CBF012300236E
:10354000DBB21A46FB799A4293D000231846103713
:10355000BD4680BD80B584B000AFF860B9607A60C8
:103560003B6071E0FB681B685B6903F48063B3F543
:10357000806F23D1FB681B681A68FB681B6842F4E4
:1035800000721A60FB681B686FF480625A61FB6806
:1035900000221A63FB68202283F83D20FB6800228A
:1035A00083F83E20FB681B6C43F00402FB681A643E
:1035B000FB68002283F83C20012367E07B68B3F1BD
:1035C000FF3F41D0FFF7C2F902463B68D31A7A6841
:1035D0009A4202D37B68002B36D1BB681B0CDBB24E
:1035E000012B0CD1FB681B685B69DA43BB68134095
:1035F0009BB2002B14BF01230023DBB20BE0FB685E
:103600001B689B69DA43BB6813409BB2002B14BF55
:1036100001230023DBB2002B16D0FB6800221A63C3
:10362000FB68202283F83D20FB68002283F83E20BF
:10363000FB681B6C43F02002FB681A64FB680022E5
:1036400083F83C20012321E0BB681B0CDBB2012B7B
:103650000CD1FB681B685B69DA43BB6813409BB203
:10366000002B14BF01230023DBB20BE0FB681B68B7
:103670009B69DA43BB6813409BB2002B14BF012344
:103680000023DBB2002B7FF46DAF00231846103708
:10369000BD4680BD80B584B000AFF860B9607A6087
:1036A00034E0F86800F086F80346002B01D00123CF
:1036B00034E0BB68B3F1FF3F28D0FFF747F902467B
:1036C0007B68D31ABA689A4202D3BB68002B1DD11B
:1036D000FB681B685B6903F08003802B16D0FB68D6
:1036E00000221A63FB68202283F83D20FB68002239
:1036F00083F83E20FB681B6C43F02002FB681A64D1
:10370000FB68002283F83C20012307E0FB681B686C
:103710005B6903F08003802BC3D100231846103768
:10372000BD4680BD80B584B000AFF860B9607A60F6
:1037300034E0F86800F03EF80346002B01D0012386
:1037400034E0BB68B3F1FF3F28D0FFF7FFF8024633
:103750007B68D31ABA689A4202D3BB68002B1DD18A
:10376000FB681B685B6903F00403042B16D0FB683D
:1037700000221A63FB68202283F83D20FB680022A8
:1037800083F83E20FB681B6C43F02002FB681A6440
:10379000FB68002283F83C20012307E0FB681B68DC
:1037A0005B6903F00403042BC3D1002318461037D0
:1037B000BD4680BD80B483B000AF78607B681B6875
:1037C0005B6903F48063B3F5806F1BD17B681B6872
:1037D0006FF480625A617B6800221A637B68202242
:1037E00083F83D207B68002283F83E207B681B6CB9
:1037F00043F004027B681A647B68002283F83C2053
:10380000012300E0002318460C37BD4680BC7047FA
:1038100080B586B000AF78607B68002B01D10123B2
:1038200072E27B681B6803F00103002B00F08780C5
:10383000924B5B6803F00C03042B0CD08F4B5B683E
:1038400003F00C03082B12D18C4B5B6803F480331C
:10385000B3F5803F0BD1894B1B6803F40033002B79
:103860006CD07B685B68002B68D101234CE27B68DD
:103870005B68B3F5803F06D1804B1B687F4A43F4F9
:10388000803313602EE07B685B68002B0CD17B4B90
:103890001B687A4A23F480331360784B1B68774A9D
:1038A00023F4802313601DE07B685B68B3F5A02FD1
:1038B0000CD1724B1B68714A43F4802313606F4B29
:1038C0001B686E4A43F4803313600BE06B4B1B683C
:1038D0006A4A23F480331360684B1B68674A23F4F9
:1038E000802313607B685B68002B13D0FFF72EF8F2
:1038F000386108E0FFF72AF802463B69D31A642BC7
:1039000001D9032300E25D4B1B6803F40033002B55
:10391000F0D014E0FFF71AF8386108E0FFF716F866
:1039200002463B69D31A642B01D90323ECE1534BC4
:103930001B6803F40033002BF0D100E000BF7B686C
:103940001B6803F00203002B63D04C4B5B6803F051
:103950000C03002B0BD0494B5B6803F00C03082BC6
:103960001CD1464B5B6803F48033002B16D1434BCC
:103970001B6803F00203002B05D07B681B69012B39
:1039800001D00123C0E13D4B1B6823F0F8027B68A6
:103990005B69DB00394913430B603AE07B681B69C4
:1039A000002B20D0364B01221A60FEF7CFFF386182
:1039B00008E0FEF7CBFF02463B69D31A022B01D980
:1039C0000323A1E12D4B1B6803F00203002BF0D071
:1039D0002A4B1B6823F0F8027B685B69DB002749F0
:1039E00013430B6015E0264B00221A60FEF7AEFF72
:1039F000386108E0FEF7AAFF02463B69D31A022BA2
:103A000001D9032380E11D4B1B6803F00203002B47
:103A1000F0D17B681B6803F00803002B3AD07B6869
:103A20009B69002B19D0174B01221A60FEF78EFFFD
:103A3000386108E0FEF78AFF02463B69D31A022B81
:103A400001D9032360E10D4B5B6A03F00203002BF5
:103A5000F0D0012000F0CEFA1CE00A4B00221A60E0
:103A6000FEF774FF38610FE0FEF770FF02463B6916
:103A7000D31A022B08D9032346E100BF00100240ED
:103A80000000424280044242924B5B6A03F0020310
:103A9000002BE9D17B681B6803F00403002B00F0C6
:103AA000A6800023FB758B4BDB6903F08053002B52
:103AB0000DD1884BDB69874A43F08053D361854B36
:103AC000DB6903F08053BB60BB680123FB75824B4D
:103AD0001B6803F48073002B18D17F4B1B687E4A50
:103AE00043F480731360FEF731FF386108E0FEF79E
:103AF0002DFF02463B69D31A642B01D9032303E14E
:103B0000754B1B6803F48073002BF0D07B68DB6877
:103B1000012B06D16F4B1B6A6E4A43F001031362FF
:103B20002DE07B68DB68002B0CD16A4B1B6A694A6D
:103B300023F001031362674B1B6A664A23F00403F8
:103B400013621CE07B68DB68052B0CD1614B1B6AA0
:103B5000604A43F0040313625E4B1B6A5D4A43F004
:103B6000010313620BE05B4B1B6A5A4A23F001030B
:103B70001362584B1B6A574A23F0040313627B6895
:103B8000DB68002B15D0FEF7E1FE38610AE0FEF796
:103B9000DDFE02463B69D31A41F28832934201D9D5
:103BA0000323B1E04B4B1B6A03F00203002BEED062
:103BB00014E0FEF7CBFE38610AE0FEF7C7FE0246CE
:103BC0003B69D31A41F28832934201D903239BE027
:103BD000404B1B6A03F00203002BEED1FB7D012B4F
:103BE00005D13C4BDB693B4A23F08053D3617B68B2
:103BF000DB69002B00F08780364B5B6803F00C0319
:103C0000082B61D07B68DB69022B46D1334B002245
:103C10001A60FEF79BFE386108E0FEF797FE024649
:103C20003B69D31A022B01D903236DE0294B1B6892
:103C300003F00073002BF0D17B681B6AB3F5803F63
:103C400008D1244B5B6823F400327B689B682149D0
:103C500013434B601F4B5B6823F474127B68196A33
:103C60007B685B6A0B431B4913434B601B4B012270
:103C70001A60FEF76BFE386108E0FEF767FE024649
:103C80003B69D31A022B01D903233DE0114B1B687A
:103C900003F00073002BF0D035E0104B00221A60C7
:103CA000FEF754FE386108E0FEF750FE02463B691D
:103CB000D31A022B01D9032326E0064B1B6803F01D
:103CC0000073002BF0D11EE07B68DB69012B07D16C
:103CD000012319E0001002400070004060004242E1
:103CE0000B4B5B68FB60FB6803F480327B681B6AEC
:103CF0009A4206D1FB6803F470127B685B6A9A42B1
:103D000001D0012300E0002318461837BD4680BDCE
:103D10000010024080B584B000AF786039607B68E5
:103D2000002B01D10123D0E06A4B1B6803F007038D
:103D30003A689A4210D9674B1B6823F0070265491D
:103D40003B6813430B60634B1B6803F007033A683F
:103D50009A4201D00123B8E07B681B6803F002039C
:103D6000002B20D07B681B6803F00403002B05D0D8
:103D7000594B5B68584A43F4E06353607B681B68A7
:103D800003F00803002B05D0534B5B68524A43F401
:103D900060535360504B5B6823F0F0027B689B6874
:103DA0004D4913434B607B681B6803F00103002BF4
:103DB00040D07B685B68012B07D1474B1B6803F43D
:103DC0000033002B15D101237FE07B685B68022B59
:103DD00007D1414B1B6803F00073002B09D101236D
:103DE00073E03D4B1B6803F00203002B01D101235C
:103DF0006BE0394B5B6823F003027B685B683649F4
:103E000013434B60FEF7A2FDF8600AE0FEF79EFD4B
:103E10000246FB68D31A41F28832934201D9032348
:103E200053E02D4B5B6803F00C027B685B689B00E2
:103E30009A42EBD1274B1B6803F007033A689A427A
:103E400010D2244B1B6823F0070222493B6813431E
:103E50000B60204B1B6803F007033A689A4201D0BD
:103E6000012332E07B681B6803F00403002B08D0B9
:103E7000194B5B6823F4E0627B68DB6816491343E7
:103E80004B607B681B6803F00803002B09D0124BC2
:103E90005B6823F460527B681B69DB000E491343A7
:103EA0004B6000F021F802460B4B5B681B0903F0E6
:103EB0000F030A49CB5C22FA03F3094A1360094B4A
:103EC0001B681846FEF700FD002318461037BD4654
:103ED00080BD00BF0020024000100240AC950008E9
:103EE000000000200400002080B487B000AF002351
:103EF000FB600023BB6000237B6100237B60002309
:103F00003B611E4B5B68FB60FB6803F00C03042BFA
:103F100002D0082B03D027E0194B3B6127E0FB6858
:103F20009B0C03F00F03174AD35C7B60FB6803F420
:103F30008033002B10D0114B5B685B0C03F0010346
:103F4000114AD35CBB607B680D4A03FB02F2BB687D
:103F5000B2FBF3F37B6104E07B680C4A02FB03F3E2
:103F60007B617B693B6102E0054B3B6100BF3B69C4
:103F700018461C37BD4680BC704700BF0010024089
:103F800000127A00C4950008D495000800093D008D
:103F900080B400AF024B1B681846BD4680BC70471A
:103FA0000000002080B500AFFFF7F2FF0246054B8E
:103FB0005B681B0A03F007030349CB5C22FA03F397
:103FC000184680BD00100240BC95000880B500AFC7
:103FD000FFF7DEFF0246054B5B68DB0A03F00703D1
:103FE0000349CB5C22FA03F3184680BD001002405F
:103FF000BC95000880B485B000AF78600A4B1B68A0
:104000000A4AA2FB03235B0A7A6802FB03F3FB6004
:1040100000BFFB685A1EFA60002BF9D100BF00BF39
:104020001437BD4680BC704700000020D34D62109D
:1040300080B582B000AF78607B68002B01D101238E
:1040400042E07B6893F84130DBB2002B06D17B68FD
:10405000002283F840207868FEF772FB7B682422F8
:1040600083F841207B681B68DA687B681B6822F450
:104070000052DA60786800F071F97B681B681A6991
:104080007B681B6822F490421A617B681B685A693E
:104090007B681B6822F02A025A617B681B68DA6819
:1040A0007B681B6842F40052DA607B6800225A6425
:1040B0007B68202283F841207B68202283F84220FD
:1040C0007B6800225A63002318460837BD4680BD2E
:1040D00080B58AB002AFF860B9603B601346FB80E0
:1040E00000237B61FB6893F84130DBB2202B75D154
:1040F000BB68002B02D0FB88002B01D101236EE0AE
:10410000FB6800225A64FB68212283F84120FEF7F5
:104110001DFC7861FB68FA889A84FB68FA88DA8467
:10412000FB689B68B3F5805F08D1FB681B69002BB7
:1041300004D10023FB61BB68BB6103E0BB68FB618A
:104140000023BB612EE03B6800937B690022802145
:10415000F86800F048F80346002B05D0FB682022E1
:1041600083F8412003233AE0FB69002B0BD1BB69A4
:104170001B881A46FB681B68C2F308025A60BB69B9
:104180000233BB6107E0FB691A78FB681B685A6061
:10419000FB690133FB61FB68DB8C9BB2013B9AB28C
:1041A000FB68DA84FB68DB8C9BB2002BCBD13B68CD
:1041B00000937B6900224021F86800F014F8034660
:1041C000002B05D0FB68202283F84120032306E062
:1041D000FB68202283F84120002300E002231846D8
:1041E0002037BD4680BD80B586B000AFF860B960AD
:1041F0003B601346FB713BE03B6AB3F1FF3F37D0B6
:10420000FEF7A4FB02463B68D31A3A6A9A4202D3ED
:104210003B6A002B01D103233AE0FB681B68DB6893
:1042200003F00403002B23D0BB68802B20D0BB6895
:10423000402B1DD0FB681B681B6803F00803082B8C
:1042400016D100237B61FB681B681B687B61FB68E0
:104250001B685B687B617B69F86800F01DF8FB6890
:1042600008225A64FB68002283F8402001230FE0F3
:10427000FB681B681A68BB681340BA689A420CBF97
:1042800001230023DBB21A46FB799A42B4D0002303
:1042900018461837BD4680BD80B495B000AF786031
:1042A0007B681B680C337B637B6B53E8003F3B638D
:1042B0003B6B23F49073FB647B681B680C33FA6CD4
:1042C0003A64FB63F96B3A6C41E80023BB63BB6B58
:1042D000002BE5D17B681B6814333B623B6A53E8D3
:1042E000003FFB61FB6923F00103BB647B681B6833
:1042F0001433BA6CFA62BB62B96AFA6A41E8002305
:104300007B627B6A002BE5D17B681B6B012B19D18B
:104310007B681B680C33FB60FB6853E8003FBB60A5
:10432000BB6823F010037B647B681B680C337A6CDA
:10433000BA617B617969BA6941E800233B613B69F5
:10434000002BE5D17B68202283F842207B68002285
:104350001A6300BF5437BD4680BC704780B584B037
:1043600000AF78607B681B681B6923F440517B6851
:10437000DA687B681B680A431A617B689A687B6805
:104380001B691A437B685B691343BB607B681B68CE
:10439000DB6823F4B05323F00C037A681268B96821
:1043A0000B43D3607B681B685B6923F440717B68B7
:1043B0009A697B681B680A435A617B681B682C4AB0
:1043C000934203D1FFF702FEF86002E0FFF7EAFD37
:1043D000F860FA6813469B0013449A001A447B68FD
:1043E0005B689B00B2FBF3F3224AA2FB03235B0949
:1043F0001901FA6813469B0013449A001A447B681B
:104400005B689B00B2FBF3F21A4BA3FB02035B0950
:10441000642000FB03F3D31A1B013233154AA2FBBD
:1044200003235B0903F0F0031944FA6813469B0069
:1044300013449A001A447B685B689B00B2FBF3F25A
:104440000C4BA3FB02035B09642000FB03F3D31AAC
:104450001B013233074AA2FB03235B0903F00F025F
:104460007B681B680A449A6000BF1037BD4680BD58
:10447000003801401F85EB51002B2DE9F0471D4608
:10448000BBBF03F100431D4600232D2388B0144613
:10449000B8BF1446129A109E1370149BDDF84CA0FE
:1044A00023F02008B8F1460F05D0B8F1450F00D130
:1044B0000136022300E0032307AA049206AACDE9ED
:1044C00002A2CDE9003622462B4601F089F8B8F168
:1044D000470F074619D1119BDB070ED500EB0609E4
:1044E0000022002320462946FCF75EFA08B1CDF8E9
:1044F0001C903022079B4B451ED33846079B159ACC
:10450000DB1B136008B0BDE8F087B8F1460F00EB85
:104510000609E5D10378302B0AD10022002320467A
:104520002946FCF741FA18B9C6F10106CAF800603D
:10453000DAF800309944D3E7591C07911A70D9E78B
:10454000F7B50029B6BF2D232B2349420929027054
:10455000437029DD0DF107031D460A27B1FBF7F66D
:104560001A4607FB1614303402F8014C0C46632C33
:10457000314603F1FF33F1DC3031941E03F8011CA6
:104580002346411CAB420AD30DF109039B1AAC42EE
:1045900088BF002302330344181A03B0F0BD13F898
:1045A000016B01F8016FEDE7302330318370C1708A
:1045B000031DF1E72DE9F04F91B00C46DDF868805E
:1045C00016461F46054600F0F9FE03681846089394
:1045D000FBF7BEFD00230E93D8F800300990073397
:1045E00023F0070303F1080294F818A0D4F800B0F0
:1045F000C8F80020D3E9008929F000430B93CDF8D7
:1046000028804FF0FF32DDE90A01C4E912899C4B92
:10461000FCF7FCF970BBDDE90A014FF0FF32984B63
:10462000FCF7D6F930BB0022002340464946FCF790
:10463000C5F910B12D2384F84330924A924BBAF158
:10464000470F8CBF9046984603234FF00009236123
:104650002BF00403236033462146284600970FAA17
:1046600000F0D4F9013040F090804FF0FF3011B0ED
:10467000BDE8F08F42464B4640464946FCF7C6F936
:1046800048B14B46002BB8BF2D23804AB8BF84F8F1
:1046900043307F4BD3E763680AF0DF015A1C3FD1F8
:1046A0000623636000224BF48063236006920EAA07
:1046B000CDE904A20DAA03920DF13302CDE9013236
:1046C00063684246009328464B460A91FFF7D4FEA2
:1046D0000A99804647290D9928D1C81C02DB6368D6
:1046E000994240DDAAF1020A5FFA8AFA524601397C
:1046F00004F150000D91FFF723FF0E9A8146131825
:10470000012A236102DC2268D20701D5013323612B
:104710009DF83330002B9ED02D2384F843309AE748
:104720004729BFD1002BBDD10123BAE7BAF1650FEC
:10473000DCD9BAF1660F18D1002963680BDD21615D
:1047400013B92268D00702D501330B4423614FF01F
:104750000009A165DCE713B92268D20701D502334D
:10476000F4E70123F2E74FF0670A0E9B994205DB5D
:1047700023682161D807EAD54B1CE7E70029CCBFA5
:104780000122C1F102021344E0E723685A0507D46D
:104790002369424631462846B84701302BD164E7A9
:1047A000BAF1650F40F2DC80D4E912010022002347
:1047B000FCF7FAF8002833D0012331462846354A61
:1047C000B84701303FF451AFDDE90D38434502DB16
:1047D0002368D8070FD5DDE9082331462846B847B6
:1047E00001303FF442AF4FF0000908F1FF3804F107
:1047F0001A0AC84509DC23689B0700F10281E068BA
:104800000F9B9842B8BF184631E701235246314604
:104810002846B84701303FF428AF09F10109E8E71D
:104820000D9B002B38DC012331462846194AB84736
:1048300001303FF41AAFDDE90D3959EA030302D123
:104840002368D907D7D5DDE9082331462846B8477C
:1048500001303FF40AAF4FF0000A04F11A0B0D9B30
:104860005B42534501DC4B4693E701235A463146F0
:104870002846B84701303FF4F8AE0AF1010AEEE7E6
:10488000FFFFEF7FDA950008D6950008E295000853
:10489000DE950008E6950008A36DDDF838A05345C5
:1048A000A8BF5346002B994636DC4FF0000B29EA8F
:1048B000E97904F11A02A36D0A93A3EB09035B459E
:1048C00031DC0D9B9A453ADC2368DA0737D40D9B1F
:1048D000AAEB03090A9BAAEB03039945A8BF9946D3
:1048E000B9F1000F33DC4FF0000829EAE97904F14F
:1048F0001A0B0D9BAAEB0303A3EB090343457FF7B8
:104900007AAF01235A4631462846B84701303FF472
:10491000ACAE08F10108ECE7424631462846B847FC
:104920000130C2D1A1E60123314628460A92B84798
:1049300001303FF49AAE0A9A0BF1010BBBE7314606
:10494000DDE908232846B8470130C0D18DE60A9A30
:104950004B46314628464244B8470130C3D184E62D
:10496000DDF838A0BAF1010F01DCDB0736D50123F1
:10497000424631462846B84701303FF476AEDDE97D
:10498000082331462846B84701303FF46EAED4E9DB
:104990001201002200230AF1FF3AFCF705F8C0B922
:1049A000534608F1010231462846B84701300CD180
:1049B0005BE601235A4631462846B84701303FF4AA
:1049C00054AE08F10108D045F3DB4B4604F1500228
:1049D000E0E64FF0000804F11A0BF4E70123424629
:1049E000E1E701234A4631462846B84701303FF403
:1049F0003CAE08F10108E3680F995B1A4345F0DC0F
:104A0000FDE64FF0000804F11909F4E72DE9F0473D
:104A1000164698468A680B6907469342B8BF134604
:104A2000336091F843200C46DDF820900AB1013341
:104A300033602368990642BF3368023333602568C8
:104A400015F0060506D104F1190AE36832689B1ACD
:104A5000AB422BDC94F843302268003B18BF0123A3
:104A6000920630D44146384604F14302C84701302B
:104A700023D02368226903F00603042B14BF00250A
:104A800033684FF0000608BFE56804F11A0408BF58
:104A9000ED1A54F8123C08BF25EAE5759342C4BFED
:104AA0009B1AED18B5421AD1002008E001235246A6
:104AB00041463846C847013003D14FF0FF30BDE8CA
:104AC000F0870135C1E73020E11881F843005A1C16
:104AD00094F845102244023382F84310C2E70123C0
:104AE000224641463846C8470130E6D00136D9E76C
:104AF0002DE9FF470F7E9146782F80460C469A4657
:104B00000C9E01F1430207D8622F0AD8002F00F053
:104B1000D180582F00F0B88004F1420684F842702A
:104B20003AE0A7F16303152BF6D801A151F823F061
:104B3000894B00089D4B0008194B0008194B0008D1
:104B4000194B0008194B00089D4B0008194B000831
:104B5000194B0008194B0008194B00089B4C000822
:104B6000C74B0008554C0008194B0008194B0008AA
:104B7000BD4C0008194B0008C74B0008194B000832
:104B8000194B00085D4C000833681A1D1B68326021
:104B900004F1420684F8423001239CE03368206827
:104BA000191D3160060601D51D6803E04506FBD5D9
:104BB000B3F90050002D03DA2D236D4284F8433001
:104BC0000A23584811E021683368080653F8045B4B
:104BD00002D4490648BFADB26F2F336014BF0A2319
:104BE00008235048002184F843106668002EA66010
:104BF00005DB21682E4321F0040121604BD01646CD
:104C0000B5FBF3F103FB1157C75D06F8017D2F4695
:104C1000BB420D46F4D9082B0BD12368DF0708D51A
:104C2000236961689942DEBF302306F8013C06F132
:104C3000FF36921B22614B4621464046CDF800A02C
:104C400003AAFFF7E3FE01304AD14FF0FF3004B072
:104C5000BDE8F087236843F02003236078273248BB
:104C600084F84570236831681F0651F8045B02D44C
:104C70005F0648BFADB23160D90744BF43F020039F
:104C800023601DB11023ADE72648E9E7236823F030
:104C900020032360F6E71646BDE733682568181D34
:104CA000616930602E061B6801D5196002E0680654
:104CB000FBD51980002316462361BCE73368002129
:104CC0001A1D32601E686268304600F0EEFB08B1C3
:104CD000801B606063682361002384F84330AAE787
:104CE0003246494640462369D0470130ADD023685B
:104CF0009B0713D4E068039B9842B8BF1846A6E709
:104D00000123324649464046D04701309DD0013507
:104D1000E36803995B1AAB42F2DCEBE7002504F190
:104D20001906F5E7E8950008F99500082DE9F04F18
:104D300087B003938B6891465A1EB2F5AE7F82BF4F
:104D40006FF4AE7503EB050B40F25D130A464FF0AE
:104D5000000588BF8B600B68804643F4F06342F81F
:104D60001C3B0C4698BF4FF0000B1646AA462F4638
:104D7000CDE9045501920295A2685AB1D9F80030E4
:104D80001B784E2B62D8402B3AD8A3F12B01C8B226
:104D90000E2838D91FB1236823F4807323600AF1E9
:104DA000FF3ABAF1010F00F21481019B9E4200F21A
:104DB0000581012007B0BDE8F08FA3F161020D2A43
:104DC000E8D801A151F822F0114F0008954D0008D4
:104DD000954D0008954D00086D4F0008474F00089D
:104DE000954D0008954D00081F4F0008954D00088F
:104DF000954D0008954D0008954D0008DB4E0008C4
:104E0000A3F14102DBE70E29C4D801A050F821F03C
:104E1000CB4E0008954D0008CB4E00085B4F0008B4
:104E2000954D00086D4E0008B14E0008B14E0008C7
:104E3000B14E0008B14E0008B14E0008B14E000856
:104E4000B14E0008B14E0008B14E00086E2B09D8D3
:104E5000602BB2D8542B7BD0592B9BD1072D99D1E5
:104E600008252FE0742B73D0792BF6E72168C8054D
:104E70001ED521F0800121600137BBF1000F03D066
:104E800001320BF1FF3BA260A368013BA3602369E1
:104E900001332361D9F80430013B002BC9F80430F9
:104EA00040F38380D9F800300133C9F8003063E75C
:104EB0001AEB05017FF46EAF0D468A46226822F494
:104EC000C072226006F8013BDEE7226810067FF51B
:104ED00061AF22F080022260F4E7BAF1000F0CD13A
:104EE00077B9226802F4E061B1F5E06F08D122F4ED
:104EF000F0624FF0010A2260E4E7BAF1020F51D0EC
:104F0000012D02D0042D7FF445AF0135EDB2D9E774
:104F1000BAF1010F7FF43EAF4FF0020AD2E775B944
:104F2000002F7FF438AF226802F4E061B1F5E06F42
:104F300040F0FF8022F4F06201252260C2E7032DD9
:104F4000E3D0052DDFE7022D7FF424AF0325B9E779
:104F5000062D7FF41FAF0725B4E7226891057FF582
:104F600019AF22F4207222600297ABE7226802F4A4
:104F7000A061B1F5806F05D050057FF50BAF002F14
:104F800000F0D780910558BF029922F4F06258BF13
:104F9000791A42F4C0724FF0000758BFCDE90416E9
:104FA00022608FE74FF0030A8CE749464046D4F869
:104FB0008031984700283FF4DFAEEBE6D4F87C312F
:104FC0004A46404616F8011D98472369013B236174
:104FD000EBE66B1E062B24D8022D36D8019B9E4291
:104FE0007FF6E7AED4F87C314A46404616F8011DFC
:104FF00098472369013B2361F0E7D4F87C314A46A6
:1050000040461BF8011D98472369013B23610AF1C3
:10501000FF3A5FFA8AFABAF1020FEED1033DEDB220
:10502000761B2368DA0530D55B0511D5019B9E42BE
:105030007FF6BFAED4F87C314A46404616F8011DD3
:1050400098472369013B2361F0E7AA46B346DEE7B0
:1050500016F8011C2369652903F1FF3306F1FF35BA
:1050600023610CD045290AD0D4F87C314A46404609
:105070009847236916F8021C013BB51E23614A4676
:105080004046D4F87C3198472E46226812F0100230
:1050900001D000208EE63270236803F4C063B3F5BC
:1050A000806F25D1029B9F420AD0DA1B04F26F1356
:1050B0009E4228BF04F5B77630461F4900F002F93A
:1050C00000224046019902F0F7FB039B25681B680C
:1050D00015F0020F06460F4603F1040215D003999E
:1050E0000A601B68C3E90067E3680133E360D0E747
:1050F000049B002BE4D005990A234046013102F0BD
:105100005BFC049B059EC21AD0E76D07E7D4039DA4
:105110002A601D6802460B46FBF778FC20B1074861
:1051200000F0D2F92860DFE730463946FBF7CCFCC7
:10513000F8E7002733E600BF0A9600084B970008FF
:10514000002310B50446C0E90033C0E9043383608E
:1051500081814366C2818361194608225C3000F078
:1051600016F90D4B246263620C4BA3620C4BE36295
:105170000C4B23630C4B9C4206D003F16802944213
:1051800002D0D0339C4205D104F15800BDE8104054
:1051900000F088B910BD00BF095300082B53000868
:1051A000635300088753000810070020024A034990
:1051B000034800F069B800BF0C0000206D7D0008B6
:1051C0001C00002041680C4B10B59942044601D0E8
:1051D00002F0CCFDA168094B994202D0204602F0B2
:1051E000C5FDE168064B994204D02046BDE8104059
:1051F00002F0BCBD10BD00BF1007002078070020E2
:10520000E007002010B50B4B0B4C0C4A20461A60EF
:1052100004210022FFF794FF04F168000122092114
:10522000FFF78EFF04F1D0000222BDE810401221EA
:10523000FFF786BF4808002010070020AD51000886
:10524000014800F030B900BF51080020014800F0CB
:105250002BB900BF5108002010B50446FFF7F0FF3E
:10526000236A1BB1BDE81040FFF7F0BF044B236277
:10527000044B1B68002BF5D1FFF7C4FFF2E700BF1A
:10528000C5510008480800202DE9F8430746884624
:1052900014460026D4E90195B9F1010905D5246821
:1052A000002CF7D13046BDE8F883AB89012B07D934
:1052B000B5F90E30013303D029463846C0470643BE
:1052C0006835E9E70EB46FF0004110B500249DB0D9
:1052D0001FAB02900690079104910948094953F8C1
:1052E000042B0591006802A901931B9402F0C2FBF4
:1052F000029B1C701DB0BDE8104003B0704700BF9A
:10530000180000200802FFFF10B50C46B1F90E107E
:1053100000F07AF80028ABBF636DA3891B1823F453
:105320008053ACBF6365A38110BD2DE9F0411F46DA
:105330008B890546DB050C46164605D5022300225F
:10534000B1F90E1000F04EF8A389324623F48053D1
:10535000A38128463B46B4F90E10BDE8F04100F0A9
:1053600065B810B50C46B1F90E1000F03BF8431CBF
:10537000A38915BF606523F4805343F48053A38150
:1053800018BFA38110BDB1F90E1000F01BB8034681
:105390000244934200D1704703F8011BF9E702462B
:1053A00010B5147813460132002CFAD1013B11F8E4
:1053B000012B03F8012F002AF9D110BD00487047D6
:1053C0005801002038B50023054D044608462B60DF
:1053D000FDF7F5F8431C02D12B6803B1236038BDFB
:1053E0004C08002038B50446084611460022054DF9
:1053F0002A601A46FDF707F9431C02D12B6803B156
:10540000236038BD4C08002038B5044608461146D4
:105410000022054D2A601A46FDF798F8431C02D178
:105420002B6803B1236038BD4C08002038B5044612
:10543000084611460022054D2A601A46FDF7A3F8DA
:10544000431C02D12B6803B1236038BD4C080020F7
:10545000014B1868704700BF1800002070B5002687
:105460000C4D0D4C641BA410A64209D103F06AFB3D
:1054700000260A4D0A4C641BA410A64205D170BD3B
:1054800055F8043B98470136EEE755F8043B98473A
:105490000136F2E7049A0008049A0008049A00080A
:1054A000089A0008704770477047034610B5C9B2A4
:1054B00002449342184601D1002003E004780133EE
:1054C0008C42F6D110BD0000004870470000C07F3C
:1054D0002DE9F74F03690C690746A3427EDB013CC7
:1054E000A30000F1140501F11408009305EB8403F7
:1054F000019358F8243055F8242001339A42B2FB26
:10550000F3F608EB84092ED34FF0000AC446AE46EA
:10551000D3465CF8043B98B206FB00A01B0C020CBF
:1055200006FB0323DEF8002080B292B2121A5A441E
:10553000DEF800004FEA134A9BB2C3EB224303EBB1
:10554000104392B242EA0342E1454FEA234B4EF840
:10555000042BDED2009BEB582BB9019B043B9D42F0
:105560001A462FD33C61384601F0C8F9002825DBE4
:105570002946002058F8042BD1F800C01FFA82FEFB
:105580001FFA8CF3A3EB0E030344120CC2EB23426D
:1055900002EB1C429BB243EA0243C1454FEA224060
:1055A00041F8043BE6D255F8242005EB840322B9E8
:1055B000043B9D421A460BD33C610136304603B092
:1055C000BDE8F08F1268043B002ACBD1013CC6E74E
:1055D0001268043B002AEFD1013CEAE70020EEE725
:1055E0002DE9F04F14461D46C76997B08146CDE9B5
:1055F0000645239E7FB9102000F00EFE0246C9F832
:105600001C0020B9EF21AC4BAC4802F027FCC0E9EC
:1056100001770760C760D9F81C30196859B15A681A
:10562000012393404A608B60484600F0EBFE002265
:10563000D9F81C301A602B1EAFBF0023012223F0C3
:1056400000430793A8BF3360DDF81C809C4BB8BFB4
:10565000326033EA080312D142F20F73229A1360C8
:10566000C8F31303234300F05E85249BDFF854A2A4
:10567000002B00F060850AF1030300F05ABDDDE95C
:105680000623CDE90C23DDE90C0100220023FBF702
:105690008BF9074658B10123229A1360249B13B15A
:1056A000894B249A1360DFF824A200F044BD14ABA8
:1056B000019315AB00934846DDE90C2301F036FA5F
:1056C000C8F30A560390002E78D0DDE90C010D9B3B
:1056D000A6F2FF36C3F3130343F07F5343F44013A2
:1056E0001297194600227A4BFAF73EFD6CA3D3E9D4
:1056F0000023FAF7F1FE6CA3D3E90023FAF736FD95
:10570000044630460D46FAF77DFE69A3D3E900232F
:10571000FAF7E2FE02460B4620462946FAF726FD36
:1057200004460D46FBF788F9002207460023204671
:105730002946FBF743F940B13846FAF763FE2246A3
:105740002B46FBF731F900B9013F162F54D8DDE99C
:105750000C01604B03EBC703D3E90023FBF72EF9E1
:1057600000284BD00023013F0F93149B9B1B5A1E14
:1057700049BFC3F10103002304930023099254BFDE
:1057800004930993002F3BDB099B0E973B4409933D
:1057900000230A93209B092B65D8052BC4BF043B2B
:1057A0002093209BC8BF0024A3F10203D8BF01248B
:1057B000032B64D8DFE803F05355382CDDE914637C
:1057C0001E4406F23243202BC1BFC3F1400308FA46
:1057D00003F806F2124324FA03F3D6BFC3F1200301
:1057E00048EA030004FA03F0FAF7FCFD0122A1F1F4
:1057F000F873013E129274E70123B5E70F90B4E706
:10580000049BDB1B04937B420A9300230E93C1E7A6
:1058100001230B93219B07EB030B0BF10103012BDE
:105820000893B8BF012306E001230B93219B002BB3
:1058300028DD9B46089300210422D9F81C0002F1C0
:1058400014059D4226D94160484600F09BFD8246E2
:10585000002843D1024640F2AF111F4BD4E600238B
:10586000E3E70023D5E7012400230B9420934FF0B6
:10587000FF3B00221223CDF820B02192DBE7012369
:105880000B93F4E74FF0010B5B46CDF820B0CDF859
:1058900084B0D0E701315200D1E700BFAFF3008000
:1058A00061436F63A787D23FB3C8608B288AC63F26
:1058B000FB799F501344D33F1C9600083396000891
:1058C0000000F07F18960008E7950008E6950008AC
:1058D0000000F83FE09700088B960008D9F81C30CC
:1058E0001860089B0E2B00F2A180002C00F09E8017
:1058F000002F33DD9C4B07F00F0203EBC203F805CA
:10590000D3E90034CDE910344FEA271416D5DDE988
:105910000C01964B0326D3E90823FAF707FFCDE9DC
:10592000060104F00F04914D54B9DDE91023DDE9BF
:105930000601FAF7FBFECDE9060128E00226F2E7B0
:10594000E10708D5DDE91001D5E90023FAF7C4FD28
:10595000CDE91001013664100835E5E700F0AF80AD
:10596000DDE90C017C42804B04F00F0203EBC20323
:10597000D3E90023FAF7B0FD02260023CDE90601A2
:105980007A4D2411002C40F08F80002BD3D1DDE91B
:1059900006450F9B002B00F09480002220462946EC
:1059A000734BFBF70BF8002800F08B80089B002B53
:1059B00000F08780BBF1000F34DD2046002229462D
:1059C0006C4BFAF789FD5C46CDE9060107F1FF381B
:1059D00001363046FAF716FDDDE90623FAF77CFDBD
:1059E0000022654BFAF7C2FB0546A1F15076002C68
:1059F0006AD1DDE906010022604BFAF7B5FB0246E9
:105A00000B46CDE906232A463346FAF7F5FF002870
:105A100040F09882DDE906012A4606F10043FAF7D4
:105A2000CDFF38BBDDE90C34CDE90634159B002BE6
:105A3000C0F257810E2F00F354814B4B03EBC70389
:105A4000D3E90034CDE90434219B002B80F2E580BA
:105A5000089B002B00F3E1800CD1DDE9040100225A
:105A6000464BFAF739FDDDE90623FAF7BBFF0028BC
:105A700000F0668200242546219B56466FEA030803
:105A800000272146484600F0BDFC002D00F0BD80F7
:105A90002FB1AF4203D03946484600F0B3FC294647
:105AA000484600F0AFFCB0E0E20705D5D5E9002399
:105AB000FAF712FD012301366410083562E7022669
:105AC00065E7B846089C84E7274B0B9903EBC403B2
:105AD00053E902235444002954D000202849FAF7FE
